{
  "contractName": "demo",
  "abi": [
    {
      "inputs": [],
      "stateMutability": "nonpayable",
      "type": "constructor"
    },
    {
      "inputs": [],
      "name": "message",
      "outputs": [
        {
          "internalType": "string",
          "name": "",
          "type": "string"
        }
      ],
      "stateMutability": "view",
      "type": "function",
      "constant": true
    },
    {
      "inputs": [
        {
          "internalType": "string",
          "name": "_message",
          "type": "string"
        }
      ],
      "name": "setMessage",
      "outputs": [],
      "stateMutability": "nonpayable",
      "type": "function"
    },
    {
      "inputs": [],
      "name": "getMessage",
      "outputs": [
        {
          "internalType": "string",
          "name": "",
          "type": "string"
        }
      ],
      "stateMutability": "view",
      "type": "function",
      "constant": true
    }
  ],
  "bytecode": "0x608060405234801561001057600080fd5b506040518060400160405280600281526020017f68690000000000000000000000000000000000000000000000000000000000008152506000908051906020019061005c929190610062565b50610166565b82805461006e90610105565b90600052602060002090601f01602090048101928261009057600085556100d7565b82601f106100a957805160ff19168380011785556100d7565b828001600101855582156100d7579182015b828111156100d65782518255916020019190600101906100bb565b5b5090506100e491906100e8565b5090565b5b808211156101015760008160009055506001016100e9565b5090565b6000600282049050600182168061011d57607f821691505b6020821081141561013157610130610137565b5b50919050565b7f4e487b7100000000000000000000000000000000000000000000000000000000600052602260045260246000fd5b61053b806101756000396000f3fe608060405234801561001057600080fd5b50600436106100415760003560e01c8063368b877214610046578063ce6d41de14610062578063e21f37ce14610080575b600080fd5b610060600480360381019061005b91906102e3565b61009e565b005b61006a6100b8565b604051610077919061035d565b60405180910390f35b61008861014a565b604051610095919061035d565b60405180910390f35b80600090805190602001906100b49291906101d8565b5050565b6060600080546100c790610433565b80601f01602080910402602001604051908101604052809291908181526020018280546100f390610433565b80156101405780601f1061011557610100808354040283529160200191610140565b820191906000526020600020905b81548152906001019060200180831161012357829003601f168201915b5050505050905090565b6000805461015790610433565b80601f016020809104026020016040519081016040528092919081815260200182805461018390610433565b80156101d05780601f106101a5576101008083540402835291602001916101d0565b820191906000526020600020905b8154815290600101906020018083116101b357829003601f168201915b505050505081565b8280546101e490610433565b90600052602060002090601f016020900481019282610206576000855561024d565b82601f1061021f57805160ff191683800117855561024d565b8280016001018555821561024d579182015b8281111561024c578251825591602001919060010190610231565b5b50905061025a919061025e565b5090565b5b8082111561027757600081600090555060010161025f565b5090565b600061028e610289846103a4565b61037f565b9050828152602081018484840111156102a657600080fd5b6102b18482856103f1565b509392505050565b600082601f8301126102ca57600080fd5b81356102da84826020860161027b565b91505092915050565b6000602082840312156102f557600080fd5b600082013567ffffffffffffffff81111561030f57600080fd5b61031b848285016102b9565b91505092915050565b600061032f826103d5565b61033981856103e0565b9350610349818560208601610400565b610352816104f4565b840191505092915050565b600060208201905081810360008301526103778184610324565b905092915050565b600061038961039a565b90506103958282610465565b919050565b6000604051905090565b600067ffffffffffffffff8211156103bf576103be6104c5565b5b6103c8826104f4565b9050602081019050919050565b600081519050919050565b600082825260208201905092915050565b82818337600083830152505050565b60005b8381101561041e578082015181840152602081019050610403565b8381111561042d576000848401525b50505050565b6000600282049050600182168061044b57607f821691505b6020821081141561045f5761045e610496565b5b50919050565b61046e826104f4565b810181811067ffffffffffffffff8211171561048d5761048c6104c5565b5b80604052505050565b7f4e487b7100000000000000000000000000000000000000000000000000000000600052602260045260246000fd5b7f4e487b7100000000000000000000000000000000000000000000000000000000600052604160045260246000fd5b6000601f19601f830116905091905056fea264697066735822122061b37415694556c4a48cfdc5a195ccfbafcd6b429aef110447bfd5e652b30beb64736f6c63430008010033",
  "immutableReferences": {},
  "source": "// SPDX-License-Identifier: MIT\n\npragma solidity ^0.8.1;\n\ncontract demo {\n    string public message;\n\n    constructor() {\n        message = \"hi\";\n    }\n\n    function setMessage(string memory _message) public {\n        message = _message;\n    }\n\n    function getMessage() public view returns (string memory) {\n        return message;\n    }\n}",
  "sourcePath": "/home/patil/benami-transaction-prohibition/backend/solidiy/contracts/demo.sol",
  "compiler": {
    "name": "solc",
    "version": "0.8.1+commit.df193b15.Emscripten.clang"
  },
  "schemaVersion": "3.4.14",
  "updatedAt": "2023-08-14T21:45:49.377Z",
  "networkType": "ethereum",
  "devdoc": {
    "kind": "dev",
    "methods": {},
    "version": 1
  },
  "userdoc": {
    "kind": "user",
    "methods": {},
    "version": 1
  }
}