{
  "contractName": "Escrow",
  "abi": [
    {
      "inputs": [
        {
          "internalType": "address",
          "name": "_nftAddress",
          "type": "address"
        },
        {
          "internalType": "address payable",
          "name": "_seller",
          "type": "address"
        },
        {
          "internalType": "address",
          "name": "_inspector",
          "type": "address"
        },
        {
          "internalType": "address",
          "name": "_lender",
          "type": "address"
        }
      ],
      "stateMutability": "nonpayable",
      "type": "constructor"
    },
    {
      "inputs": [
        {
          "internalType": "uint256",
          "name": "",
          "type": "uint256"
        },
        {
          "internalType": "address",
          "name": "",
          "type": "address"
        }
      ],
      "name": "approval",
      "outputs": [
        {
          "internalType": "bool",
          "name": "",
          "type": "bool"
        }
      ],
      "stateMutability": "view",
      "type": "function"
    },
    {
      "inputs": [
        {
          "internalType": "uint256",
          "name": "",
          "type": "uint256"
        }
      ],
      "name": "buyer",
      "outputs": [
        {
          "internalType": "address",
          "name": "",
          "type": "address"
        }
      ],
      "stateMutability": "view",
      "type": "function"
    },
    {
      "inputs": [
        {
          "internalType": "uint256",
          "name": "",
          "type": "uint256"
        }
      ],
      "name": "escrowAmount",
      "outputs": [
        {
          "internalType": "uint256",
          "name": "",
          "type": "uint256"
        }
      ],
      "stateMutability": "view",
      "type": "function"
    },
    {
      "inputs": [
        {
          "internalType": "uint256",
          "name": "",
          "type": "uint256"
        }
      ],
      "name": "inspectionPassed",
      "outputs": [
        {
          "internalType": "bool",
          "name": "",
          "type": "bool"
        }
      ],
      "stateMutability": "view",
      "type": "function"
    },
    {
      "inputs": [],
      "name": "inspector",
      "outputs": [
        {
          "internalType": "address",
          "name": "",
          "type": "address"
        }
      ],
      "stateMutability": "view",
      "type": "function"
    },
    {
      "inputs": [
        {
          "internalType": "uint256",
          "name": "",
          "type": "uint256"
        }
      ],
      "name": "isListed",
      "outputs": [
        {
          "internalType": "bool",
          "name": "",
          "type": "bool"
        }
      ],
      "stateMutability": "view",
      "type": "function"
    },
    {
      "inputs": [],
      "name": "lender",
      "outputs": [
        {
          "internalType": "address",
          "name": "",
          "type": "address"
        }
      ],
      "stateMutability": "view",
      "type": "function"
    },
    {
      "inputs": [],
      "name": "nftAddress",
      "outputs": [
        {
          "internalType": "address",
          "name": "",
          "type": "address"
        }
      ],
      "stateMutability": "view",
      "type": "function"
    },
    {
      "inputs": [
        {
          "internalType": "uint256",
          "name": "",
          "type": "uint256"
        }
      ],
      "name": "purchasePrice",
      "outputs": [
        {
          "internalType": "uint256",
          "name": "",
          "type": "uint256"
        }
      ],
      "stateMutability": "view",
      "type": "function"
    },
    {
      "inputs": [],
      "name": "seller",
      "outputs": [
        {
          "internalType": "address payable",
          "name": "",
          "type": "address"
        }
      ],
      "stateMutability": "view",
      "type": "function"
    },
    {
      "stateMutability": "payable",
      "type": "receive"
    },
    {
      "inputs": [
        {
          "internalType": "uint256",
          "name": "_nftID",
          "type": "uint256"
        },
        {
          "internalType": "address",
          "name": "_buyer",
          "type": "address"
        },
        {
          "internalType": "uint256",
          "name": "_purchasePrice",
          "type": "uint256"
        },
        {
          "internalType": "uint256",
          "name": "_escrowAmount",
          "type": "uint256"
        }
      ],
      "name": "list",
      "outputs": [],
      "stateMutability": "payable",
      "type": "function"
    },
    {
      "inputs": [
        {
          "internalType": "uint256",
          "name": "_nftID",
          "type": "uint256"
        }
      ],
      "name": "depositEarnest",
      "outputs": [],
      "stateMutability": "payable",
      "type": "function"
    },
    {
      "inputs": [
        {
          "internalType": "uint256",
          "name": "_nftID",
          "type": "uint256"
        },
        {
          "internalType": "bool",
          "name": "_passed",
          "type": "bool"
        }
      ],
      "name": "updateInspectionStatus",
      "outputs": [],
      "stateMutability": "nonpayable",
      "type": "function"
    },
    {
      "inputs": [
        {
          "internalType": "uint256",
          "name": "_nftID",
          "type": "uint256"
        }
      ],
      "name": "approveSale",
      "outputs": [],
      "stateMutability": "nonpayable",
      "type": "function"
    },
    {
      "inputs": [
        {
          "internalType": "uint256",
          "name": "_nftID",
          "type": "uint256"
        }
      ],
      "name": "finalizeSale",
      "outputs": [],
      "stateMutability": "nonpayable",
      "type": "function"
    },
    {
      "inputs": [
        {
          "internalType": "uint256",
          "name": "_nftID",
          "type": "uint256"
        }
      ],
      "name": "cancelSale",
      "outputs": [],
      "stateMutability": "nonpayable",
      "type": "function"
    },
    {
      "inputs": [],
      "name": "getBalance",
      "outputs": [
        {
          "internalType": "uint256",
          "name": "",
          "type": "uint256"
        }
      ],
      "stateMutability": "view",
      "type": "function"
    }
  ],
  "bytecode": "0x60806040523480156200001157600080fd5b506040516200151e3803806200151e833981810160405281019062000037919062000172565b836000806101000a81548173ffffffffffffffffffffffffffffffffffffffff021916908373ffffffffffffffffffffffffffffffffffffffff16021790555082600160006101000a81548173ffffffffffffffffffffffffffffffffffffffff021916908373ffffffffffffffffffffffffffffffffffffffff16021790555081600260006101000a81548173ffffffffffffffffffffffffffffffffffffffff021916908373ffffffffffffffffffffffffffffffffffffffff16021790555080600360006101000a81548173ffffffffffffffffffffffffffffffffffffffff021916908373ffffffffffffffffffffffffffffffffffffffff160217905550505050506200025a565b600081519050620001558162000226565b92915050565b6000815190506200016c8162000240565b92915050565b600080600080608085870312156200018957600080fd5b6000620001998782880162000144565b9450506020620001ac878288016200015b565b9350506040620001bf8782880162000144565b9250506060620001d28782880162000144565b91505092959194509250565b6000620001eb8262000206565b9050919050565b6000620001ff8262000206565b9050919050565b600073ffffffffffffffffffffffffffffffffffffffff82169050919050565b6200023181620001de565b81146200023d57600080fd5b50565b6200024b81620001f2565b81146200025757600080fd5b50565b6112b4806200026a6000396000f3fe6080604052600436106101025760003560e01c80639d0e5fd611610095578063bd94b00511610064578063bd94b00514610366578063c9f0ec7e1461038f578063e740f770146103ab578063ed2cee9e146103c7578063fcce4883146103f257610109565b80639d0e5fd6146102ac578063aa929380146102d5578063b848de35146102fe578063bcead63e1461033b57610109565b80635bf8633a116100d15780635bf8633a146101ca5780635d19e56c146101f55780635eed5fff1461023257806377fbc4ae1461026f57610109565b806308551a531461010e57806312065fe01461013957806314a72feb146101645780634dd4acaf1461018d57610109565b3661010957005b600080fd5b34801561011a57600080fd5b5061012361042f565b6040516101309190611037565b60405180910390f35b34801561014557600080fd5b5061014e610455565b60405161015b9190611104565b60405180910390f35b34801561017057600080fd5b5061018b60048036038101906101869190610e3b565b61045d565b005b34801561019957600080fd5b506101b460048036038101906101af9190610e3b565b6104c9565b6040516101c1919061101c565b60405180910390f35b3480156101d657600080fd5b506101df6104fc565b6040516101ec919061101c565b60405180910390f35b34801561020157600080fd5b5061021c60048036038101906102179190610e3b565b610520565b6040516102299190611104565b60405180910390f35b34801561023e57600080fd5b5061025960048036038101906102549190610e3b565b610538565b6040516102669190611089565b60405180910390f35b34801561027b57600080fd5b5061029660048036038101906102919190610e3b565b610558565b6040516102a39190611104565b60405180910390f35b3480156102b857600080fd5b506102d360048036038101906102ce9190610f03565b610570565b005b3480156102e157600080fd5b506102fc60048036038101906102f79190610e3b565b61062f565b005b34801561030a57600080fd5b5061032560048036038101906103209190610e64565b6109af565b6040516103329190611089565b60405180910390f35b34801561034757600080fd5b506103506109de565b60405161035d919061101c565b60405180910390f35b34801561037257600080fd5b5061038d60048036038101906103889190610e3b565b610a04565b005b6103a960048036038101906103a49190610ea0565b610b1d565b005b6103c560048036038101906103c09190610e3b565b610cf0565b005b3480156103d357600080fd5b506103dc610db6565b6040516103e9919061101c565b60405180910390f35b3480156103fe57600080fd5b5061041960048036038101906104149190610e3b565b610ddc565b6040516104269190611089565b60405180910390f35b600160009054906101000a900473ffffffffffffffffffffffffffffffffffffffff1681565b600047905090565b60016009600083815260200190815260200160002060003373ffffffffffffffffffffffffffffffffffffffff1673ffffffffffffffffffffffffffffffffffffffff16815260200190815260200160002060006101000a81548160ff02191690831515021790555050565b60076020528060005260406000206000915054906101000a900473ffffffffffffffffffffffffffffffffffffffff1681565b60008054906101000a900473ffffffffffffffffffffffffffffffffffffffff1681565b60066020528060005260406000206000915090505481565b60086020528060005260406000206000915054906101000a900460ff1681565b60056020528060005260406000206000915090505481565b600260009054906101000a900473ffffffffffffffffffffffffffffffffffffffff1673ffffffffffffffffffffffffffffffffffffffff163373ffffffffffffffffffffffffffffffffffffffff1614610600576040517f08c379a00000000000000000000000000000000000000000000000000000000081526004016105f7906110e4565b60405180910390fd5b806008600084815260200190815260200160002060006101000a81548160ff0219169083151502179055505050565b6008600082815260200190815260200160002060009054906101000a900460ff1661065957600080fd5b6009600082815260200190815260200160002060006007600084815260200190815260200160002060009054906101000a900473ffffffffffffffffffffffffffffffffffffffff1673ffffffffffffffffffffffffffffffffffffffff1673ffffffffffffffffffffffffffffffffffffffff16815260200190815260200160002060009054906101000a900460ff166106f357600080fd5b600960008281526020019081526020016000206000600160009054906101000a900473ffffffffffffffffffffffffffffffffffffffff1673ffffffffffffffffffffffffffffffffffffffff1673ffffffffffffffffffffffffffffffffffffffff16815260200190815260200160002060009054906101000a900460ff1661077c57600080fd5b600960008281526020019081526020016000206000600360009054906101000a900473ffffffffffffffffffffffffffffffffffffffff1673ffffffffffffffffffffffffffffffffffffffff1673ffffffffffffffffffffffffffffffffffffffff16815260200190815260200160002060009054906101000a900460ff1661080557600080fd5b600560008281526020019081526020016000205447101561082557600080fd5b60006004600083815260200190815260200160002060006101000a81548160ff0219169083151502179055506000600160009054906101000a900473ffffffffffffffffffffffffffffffffffffffff1673ffffffffffffffffffffffffffffffffffffffff164760405161089990611007565b60006040518083038185875af1925050503d80600081146108d6576040519150601f19603f3d011682016040523d82523d6000602084013e6108db565b606091505b50509050806108e957600080fd5b60008054906101000a900473ffffffffffffffffffffffffffffffffffffffff1673ffffffffffffffffffffffffffffffffffffffff166323b872dd306007600086815260200190815260200160002060009054906101000a900473ffffffffffffffffffffffffffffffffffffffff16856040518463ffffffff1660e01b815260040161097993929190611052565b600060405180830381600087803b15801561099357600080fd5b505af11580156109a7573d6000803e3d6000fd5b505050505050565b60096020528160005260406000206020528060005260406000206000915091509054906101000a900460ff1681565b600360009054906101000a900473ffffffffffffffffffffffffffffffffffffffff1681565b600015156008600083815260200190815260200160002060009054906101000a900460ff1615151415610ab0576007600082815260200190815260200160002060009054906101000a900473ffffffffffffffffffffffffffffffffffffffff1673ffffffffffffffffffffffffffffffffffffffff166108fc479081150290604051600060405180830381858888f19350505050158015610aaa573d6000803e3d6000fd5b50610b1a565b600160009054906101000a900473ffffffffffffffffffffffffffffffffffffffff1673ffffffffffffffffffffffffffffffffffffffff166108fc479081150290604051600060405180830381858888f19350505050158015610b18573d6000803e3d6000fd5b505b50565b600160009054906101000a900473ffffffffffffffffffffffffffffffffffffffff1673ffffffffffffffffffffffffffffffffffffffff163373ffffffffffffffffffffffffffffffffffffffff1614610bad576040517f08c379a0000000000000000000000000000000000000000000000000000000008152600401610ba4906110a4565b60405180910390fd5b60008054906101000a900473ffffffffffffffffffffffffffffffffffffffff1673ffffffffffffffffffffffffffffffffffffffff166323b872dd3330876040518463ffffffff1660e01b8152600401610c0a93929190611052565b600060405180830381600087803b158015610c2457600080fd5b505af1158015610c38573d6000803e3d6000fd5b5050505060016004600086815260200190815260200160002060006101000a81548160ff021916908315150217905550816005600086815260200190815260200160002081905550806006600086815260200190815260200160002081905550826007600086815260200190815260200160002060006101000a81548173ffffffffffffffffffffffffffffffffffffffff021916908373ffffffffffffffffffffffffffffffffffffffff16021790555050505050565b806007600082815260200190815260200160002060009054906101000a900473ffffffffffffffffffffffffffffffffffffffff1673ffffffffffffffffffffffffffffffffffffffff163373ffffffffffffffffffffffffffffffffffffffff1614610d92576040517f08c379a0000000000000000000000000000000000000000000000000000000008152600401610d89906110c4565b60405180910390fd5b6006600083815260200190815260200160002054341015610db257600080fd5b5050565b600260009054906101000a900473ffffffffffffffffffffffffffffffffffffffff1681565b60046020528060005260406000206000915054906101000a900460ff1681565b600081359050610e0b81611239565b92915050565b600081359050610e2081611250565b92915050565b600081359050610e3581611267565b92915050565b600060208284031215610e4d57600080fd5b6000610e5b84828501610e26565b91505092915050565b60008060408385031215610e7757600080fd5b6000610e8585828601610e26565b9250506020610e9685828601610dfc565b9150509250929050565b60008060008060808587031215610eb657600080fd5b6000610ec487828801610e26565b9450506020610ed587828801610dfc565b9350506040610ee687828801610e26565b9250506060610ef787828801610e26565b91505092959194509250565b60008060408385031215610f1657600080fd5b6000610f2485828601610e26565b9250506020610f3585828601610e11565b9150509250929050565b610f488161114d565b82525050565b610f578161113b565b82525050565b610f668161115f565b82525050565b6000610f7960208361112a565b9150610f8482611195565b602082019050919050565b6000610f9c601f8361112a565b9150610fa7826111be565b602082019050919050565b6000610fbf60238361112a565b9150610fca826111e7565b604082019050919050565b6000610fe260008361111f565b9150610fed82611236565b600082019050919050565b6110018161118b565b82525050565b600061101282610fd5565b9150819050919050565b60006020820190506110316000830184610f4e565b92915050565b600060208201905061104c6000830184610f3f565b92915050565b60006060820190506110676000830186610f4e565b6110746020830185610f4e565b6110816040830184610ff8565b949350505050565b600060208201905061109e6000830184610f5d565b92915050565b600060208201905081810360008301526110bd81610f6c565b9050919050565b600060208201905081810360008301526110dd81610f8f565b9050919050565b600060208201905081810360008301526110fd81610fb2565b9050919050565b60006020820190506111196000830184610ff8565b92915050565b600081905092915050565b600082825260208201905092915050565b60006111468261116b565b9050919050565b60006111588261116b565b9050919050565b60008115159050919050565b600073ffffffffffffffffffffffffffffffffffffffff82169050919050565b6000819050919050565b7f4f6e6c792073656c6c65722063616e2063616c6c2074686973206d6574686f64600082015250565b7f4f6e6c792062757965722063616e2063616c6c2074686973206d6574686f6400600082015250565b7f4f6e6c7920696e73706563746f722063616e2063616c6c2074686973206d657460008201527f686f640000000000000000000000000000000000000000000000000000000000602082015250565b50565b6112428161113b565b811461124d57600080fd5b50565b6112598161115f565b811461126457600080fd5b50565b6112708161118b565b811461127b57600080fd5b5056fea264697066735822122037971d1f5638dbe9bbfa74b383d3496066b40c7d5f79c6cf40435d097080848764736f6c63430008010033",
  "immutableReferences": {},
  "source": "//SPDX-License-Identifier: Unlicense\npragma solidity ^0.8.1;\n\ninterface IERC721 {\n    function transferFrom(address _from, address _to, uint256 _id) external;\n}\n\ncontract Escrow {\n    address public nftAddress;\n    address payable public seller;\n    address public inspector;\n    address public lender;\n\n    modifier onlyBuyer(uint256 _nftID) {\n        require(msg.sender == buyer[_nftID], \"Only buyer can call this method\");\n        _;\n    }\n\n    modifier onlySeller() {\n        require(msg.sender == seller, \"Only seller can call this method\");\n        _;\n    }\n\n    modifier onlyInspector() {\n        require(msg.sender == inspector, \"Only inspector can call this method\");\n        _;\n    }\n\n    mapping(uint256 => bool) public isListed;\n    mapping(uint256 => uint256) public purchasePrice;\n    mapping(uint256 => uint256) public escrowAmount;\n    mapping(uint256 => address) public buyer;\n    mapping(uint256 => bool) public inspectionPassed;\n    mapping(uint256 => mapping(address => bool)) public approval;\n\n    constructor(address _nftAddress, address payable _seller, address _inspector, address _lender) {\n        nftAddress = _nftAddress;\n        seller = _seller;\n        inspector = _inspector;\n        lender = _lender;\n    }\n\n    function list(uint256 _nftID, address _buyer, uint256 _purchasePrice, uint256 _escrowAmount) public payable onlySeller {\n        IERC721(nftAddress).transferFrom(msg.sender, address(this), _nftID);\n\n        isListed[_nftID] = true;\n        purchasePrice[_nftID] = _purchasePrice;\n        escrowAmount[_nftID] = _escrowAmount;\n        buyer[_nftID] = _buyer;\n    }\n\n    function depositEarnest(uint256 _nftID) public payable onlyBuyer(_nftID) {\n        require(msg.value >= escrowAmount[_nftID]);\n    }\n\n    function updateInspectionStatus(uint256 _nftID, bool _passed) public onlyInspector {\n        inspectionPassed[_nftID] = _passed;\n    }\n\n    function approveSale(uint256 _nftID) public {\n        approval[_nftID][msg.sender] = true;\n    }\n\n    function finalizeSale(uint256 _nftID) public {\n        require(inspectionPassed[_nftID]);\n        require(approval[_nftID][buyer[_nftID]]);\n        require(approval[_nftID][seller]);\n        require(approval[_nftID][lender]);\n        require(address(this).balance >= purchasePrice[_nftID]);\n\n        isListed[_nftID] = false;\n\n        (bool success, ) = payable(seller).call{value: address(this).balance}(\"\");\n        require(success);\n\n        IERC721(nftAddress).transferFrom(address(this), buyer[_nftID], _nftID);\n    }\n\n    function cancelSale(uint256 _nftID) public {\n        if (inspectionPassed[_nftID] == false) {\n            payable(buyer[_nftID]).transfer(address(this).balance);\n        } else {\n            payable(seller).transfer(address(this).balance);\n        }\n    }\n\n    receive() external payable {}\n\n    function getBalance() public view returns (uint256) {\n        return address(this).balance;\n    }\n}\n",
  "sourcePath": "/home/patil/benami-transaction-prohibition/backend/solidiy/contracts/Escrow.sol",
  "compiler": {
    "name": "solc",
    "version": "0.8.1+commit.df193b15.Emscripten.clang"
  },
  "schemaVersion": "3.4.14",
  "updatedAt": "2023-08-14T16:29:01.937Z",
  "devdoc": {
    "kind": "dev",
    "methods": {},
    "version": 1
  },
  "userdoc": {
    "kind": "user",
    "methods": {},
    "version": 1
  }
}