{
  "contractName": "Escrow",
  "abi": [
    {
      "inputs": [],
      "stateMutability": "nonpayable",
      "type": "constructor"
    },
    {
      "inputs": [
        {
          "internalType": "uint256",
          "name": "",
          "type": "uint256"
        },
        {
          "internalType": "address",
          "name": "",
          "type": "address"
        }
      ],
      "name": "approval",
      "outputs": [
        {
          "internalType": "bool",
          "name": "",
          "type": "bool"
        }
      ],
      "stateMutability": "view",
      "type": "function",
      "constant": true
    },
    {
      "inputs": [
        {
          "internalType": "uint256",
          "name": "",
          "type": "uint256"
        }
      ],
      "name": "buyer",
      "outputs": [
        {
          "internalType": "address",
          "name": "",
          "type": "address"
        }
      ],
      "stateMutability": "view",
      "type": "function",
      "constant": true
    },
    {
      "inputs": [
        {
          "internalType": "uint256",
          "name": "",
          "type": "uint256"
        }
      ],
      "name": "escrowAmount",
      "outputs": [
        {
          "internalType": "uint256",
          "name": "",
          "type": "uint256"
        }
      ],
      "stateMutability": "view",
      "type": "function",
      "constant": true
    },
    {
      "inputs": [
        {
          "internalType": "uint256",
          "name": "",
          "type": "uint256"
        }
      ],
      "name": "inspectionPassed",
      "outputs": [
        {
          "internalType": "bool",
          "name": "",
          "type": "bool"
        }
      ],
      "stateMutability": "view",
      "type": "function",
      "constant": true
    },
    {
      "inputs": [],
      "name": "inspector",
      "outputs": [
        {
          "internalType": "address",
          "name": "",
          "type": "address"
        }
      ],
      "stateMutability": "view",
      "type": "function",
      "constant": true
    },
    {
      "inputs": [
        {
          "internalType": "uint256",
          "name": "",
          "type": "uint256"
        }
      ],
      "name": "isListed",
      "outputs": [
        {
          "internalType": "bool",
          "name": "",
          "type": "bool"
        }
      ],
      "stateMutability": "view",
      "type": "function",
      "constant": true
    },
    {
      "inputs": [],
      "name": "lender",
      "outputs": [
        {
          "internalType": "address",
          "name": "",
          "type": "address"
        }
      ],
      "stateMutability": "view",
      "type": "function",
      "constant": true
    },
    {
      "inputs": [],
      "name": "nftAddress",
      "outputs": [
        {
          "internalType": "address",
          "name": "",
          "type": "address"
        }
      ],
      "stateMutability": "view",
      "type": "function",
      "constant": true
    },
    {
      "inputs": [
        {
          "internalType": "uint256",
          "name": "",
          "type": "uint256"
        }
      ],
      "name": "purchasePrice",
      "outputs": [
        {
          "internalType": "uint256",
          "name": "",
          "type": "uint256"
        }
      ],
      "stateMutability": "view",
      "type": "function",
      "constant": true
    },
    {
      "inputs": [],
      "name": "seller",
      "outputs": [
        {
          "internalType": "address payable",
          "name": "",
          "type": "address"
        }
      ],
      "stateMutability": "view",
      "type": "function",
      "constant": true
    },
    {
      "stateMutability": "payable",
      "type": "receive",
      "payable": true
    },
    {
      "inputs": [
        {
          "internalType": "address",
          "name": "_nftAddress",
          "type": "address"
        },
        {
          "internalType": "address payable",
          "name": "_seller",
          "type": "address"
        },
        {
          "internalType": "address",
          "name": "_inspector",
          "type": "address"
        }
      ],
      "name": "init",
      "outputs": [
        {
          "internalType": "address",
          "name": "",
          "type": "address"
        }
      ],
      "stateMutability": "nonpayable",
      "type": "function"
    },
    {
      "inputs": [
        {
          "internalType": "address",
          "name": "_lender",
          "type": "address"
        }
      ],
      "name": "setLender",
      "outputs": [],
      "stateMutability": "nonpayable",
      "type": "function"
    },
    {
      "inputs": [
        {
          "internalType": "uint256",
          "name": "_nftID",
          "type": "uint256"
        },
        {
          "internalType": "uint256",
          "name": "_purchasePrice",
          "type": "uint256"
        },
        {
          "internalType": "uint256",
          "name": "_escrowAmount",
          "type": "uint256"
        }
      ],
      "name": "list",
      "outputs": [
        {
          "internalType": "address",
          "name": "",
          "type": "address"
        }
      ],
      "stateMutability": "payable",
      "type": "function",
      "payable": true
    },
    {
      "inputs": [
        {
          "internalType": "uint256",
          "name": "_nftID",
          "type": "uint256"
        },
        {
          "internalType": "address",
          "name": "_buyer",
          "type": "address"
        }
      ],
      "name": "setByuer",
      "outputs": [],
      "stateMutability": "nonpayable",
      "type": "function"
    },
    {
      "inputs": [
        {
          "internalType": "uint256",
          "name": "_nftID",
          "type": "uint256"
        }
      ],
      "name": "depositEarnest",
      "outputs": [],
      "stateMutability": "payable",
      "type": "function",
      "payable": true
    },
    {
      "inputs": [
        {
          "internalType": "uint256",
          "name": "_nftID",
          "type": "uint256"
        },
        {
          "internalType": "bool",
          "name": "_passed",
          "type": "bool"
        }
      ],
      "name": "updateInspectionStatus",
      "outputs": [],
      "stateMutability": "nonpayable",
      "type": "function"
    },
    {
      "inputs": [
        {
          "internalType": "uint256",
          "name": "_nftID",
          "type": "uint256"
        }
      ],
      "name": "approveSale",
      "outputs": [],
      "stateMutability": "nonpayable",
      "type": "function"
    },
    {
      "inputs": [
        {
          "internalType": "uint256",
          "name": "_nftID",
          "type": "uint256"
        }
      ],
      "name": "finalizeSale",
      "outputs": [],
      "stateMutability": "nonpayable",
      "type": "function"
    },
    {
      "inputs": [
        {
          "internalType": "uint256",
          "name": "_nftID",
          "type": "uint256"
        }
      ],
      "name": "cancelSale",
      "outputs": [],
      "stateMutability": "nonpayable",
      "type": "function"
    },
    {
      "inputs": [],
      "name": "getBalance",
      "outputs": [
        {
          "internalType": "uint256",
          "name": "",
          "type": "uint256"
        }
      ],
      "stateMutability": "view",
      "type": "function",
      "constant": true
    }
  ],
  "bytecode": "0x608060405234801561001057600080fd5b5061180e806100206000396000f3fe6080604052600436106101235760003560e01c806377fbc4ae116100a0578063bcead63e11610064578063bcead63e1461041b578063bd94b00514610446578063e740f7701461046f578063ed2cee9e1461048b578063fcce4883146104b65761012a565b806377fbc4ae146103265780639d0e5fd614610363578063a3fab7c31461038c578063aa929380146103b5578063b848de35146103de5761012a565b806346e368d4116100e757806346e368d41461021b5780634dd4acaf146102445780635bf8633a146102815780635d19e56c146102ac5780635eed5fff146102e95761012a565b806308551a531461012f57806312065fe01461015a57806314a72feb14610185578063184b9559146101ae57806319aeb490146101eb5761012a565b3661012a57005b600080fd5b34801561013b57600080fd5b506101446104f3565b604051610151919061140d565b60405180910390f35b34801561016657600080fd5b5061016f610519565b60405161017c919061157a565b60405180910390f35b34801561019157600080fd5b506101ac60048036038101906101a79190611176565b610521565b005b3480156101ba57600080fd5b506101d560048036038101906101d09190611127565b61058d565b6040516101e291906113f2565b60405180910390f35b61020560048036038101906102009190611217565b61067b565b60405161021291906113f2565b60405180910390f35b34801561022757600080fd5b50610242600480360381019061023d91906110fe565b610795565b005b34801561025057600080fd5b5061026b60048036038101906102669190611176565b6107d9565b60405161027891906113f2565b60405180910390f35b34801561028d57600080fd5b5061029661080c565b6040516102a391906113f2565b60405180910390f35b3480156102b857600080fd5b506102d360048036038101906102ce9190611176565b610830565b6040516102e0919061157a565b60405180910390f35b3480156102f557600080fd5b50610310600480360381019061030b9190611176565b610848565b60405161031d919061145f565b60405180910390f35b34801561033257600080fd5b5061034d60048036038101906103489190611176565b610868565b60405161035a919061157a565b60405180910390f35b34801561036f57600080fd5b5061038a600480360381019061038591906111db565b610880565b005b34801561039857600080fd5b506103b360048036038101906103ae919061119f565b610940565b005b3480156103c157600080fd5b506103dc60048036038101906103d79190611176565b610996565b005b3480156103ea57600080fd5b506104056004803603810190610400919061119f565b610dfa565b604051610412919061145f565b60405180910390f35b34801561042757600080fd5b50610430610e29565b60405161043d91906113f2565b60405180910390f35b34801561045257600080fd5b5061046d60048036038101906104689190611176565b610e4f565b005b61048960048036038101906104849190611176565b610f68565b005b34801561049757600080fd5b506104a0611064565b6040516104ad91906113f2565b60405180910390f35b3480156104c257600080fd5b506104dd60048036038101906104d89190611176565b61108a565b6040516104ea919061145f565b60405180910390f35b600160009054906101000a900473ffffffffffffffffffffffffffffffffffffffff1681565b600047905090565b60016009600083815260200190815260200160002060003373ffffffffffffffffffffffffffffffffffffffff1673ffffffffffffffffffffffffffffffffffffffff16815260200190815260200160002060006101000a81548160ff02191690831515021790555050565b6000836000806101000a81548173ffffffffffffffffffffffffffffffffffffffff021916908373ffffffffffffffffffffffffffffffffffffffff16021790555082600160006101000a81548173ffffffffffffffffffffffffffffffffffffffff021916908373ffffffffffffffffffffffffffffffffffffffff16021790555081600260006101000a81548173ffffffffffffffffffffffffffffffffffffffff021916908373ffffffffffffffffffffffffffffffffffffffff16021790555060008054906101000a900473ffffffffffffffffffffffffffffffffffffffff1690509392505050565b60008060009054906101000a900473ffffffffffffffffffffffffffffffffffffffff1673ffffffffffffffffffffffffffffffffffffffff166323b872dd3330876040518463ffffffff1660e01b81526004016106db93929190611428565b600060405180830381600087803b1580156106f557600080fd5b505af1158015610709573d6000803e3d6000fd5b5050505060016004600086815260200190815260200160002060006101000a81548160ff021916908315150217905550826005600086815260200190815260200160002081905550816006600086815260200190815260200160002081905550600160009054906101000a900473ffffffffffffffffffffffffffffffffffffffff1690509392505050565b80600360006101000a81548173ffffffffffffffffffffffffffffffffffffffff021916908373ffffffffffffffffffffffffffffffffffffffff16021790555050565b60076020528060005260406000206000915054906101000a900473ffffffffffffffffffffffffffffffffffffffff1681565b60008054906101000a900473ffffffffffffffffffffffffffffffffffffffff1681565b60066020528060005260406000206000915090505481565b60086020528060005260406000206000915054906101000a900460ff1681565b60056020528060005260406000206000915090505481565b600260009054906101000a900473ffffffffffffffffffffffffffffffffffffffff1673ffffffffffffffffffffffffffffffffffffffff163373ffffffffffffffffffffffffffffffffffffffff1614610910576040517f08c379a00000000000000000000000000000000000000000000000000000000081526004016109079061153a565b60405180910390fd5b60016008600084815260200190815260200160002060006101000a81548160ff0219169083151502179055505050565b806007600084815260200190815260200160002060006101000a81548173ffffffffffffffffffffffffffffffffffffffff021916908373ffffffffffffffffffffffffffffffffffffffff1602179055505050565b6009600082815260200190815260200160002060006007600084815260200190815260200160002060009054906101000a900473ffffffffffffffffffffffffffffffffffffffff1673ffffffffffffffffffffffffffffffffffffffff1673ffffffffffffffffffffffffffffffffffffffff16815260200190815260200160002060009054906101000a900460ff16610a66576040517f08c379a0000000000000000000000000000000000000000000000000000000008152600401610a5d9061151a565b60405180910390fd5b600960008281526020019081526020016000206000600160009054906101000a900473ffffffffffffffffffffffffffffffffffffffff1673ffffffffffffffffffffffffffffffffffffffff1673ffffffffffffffffffffffffffffffffffffffff16815260200190815260200160002060009054906101000a900460ff16610b25576040517f08c379a0000000000000000000000000000000000000000000000000000000008152600401610b1c9061155a565b60405180910390fd5b600960008281526020019081526020016000206000600360009054906101000a900473ffffffffffffffffffffffffffffffffffffffff1673ffffffffffffffffffffffffffffffffffffffff1673ffffffffffffffffffffffffffffffffffffffff16815260200190815260200160002060009054906101000a900460ff16610be4576040517f08c379a0000000000000000000000000000000000000000000000000000000008152600401610bdb906114fa565b60405180910390fd5b6005600082815260200190815260200160002054471015610c3a576040517f08c379a0000000000000000000000000000000000000000000000000000000008152600401610c319061149a565b60405180910390fd5b60006004600083815260200190815260200160002060006101000a81548160ff0219169083151502179055506000600160009054906101000a900473ffffffffffffffffffffffffffffffffffffffff1673ffffffffffffffffffffffffffffffffffffffff1647604051610cae906113dd565b60006040518083038185875af1925050503d8060008114610ceb576040519150601f19603f3d011682016040523d82523d6000602084013e610cf0565b606091505b5050905080610d34576040517f08c379a0000000000000000000000000000000000000000000000000000000008152600401610d2b9061147a565b60405180910390fd5b60008054906101000a900473ffffffffffffffffffffffffffffffffffffffff1673ffffffffffffffffffffffffffffffffffffffff166323b872dd306007600086815260200190815260200160002060009054906101000a900473ffffffffffffffffffffffffffffffffffffffff16856040518463ffffffff1660e01b8152600401610dc493929190611428565b600060405180830381600087803b158015610dde57600080fd5b505af1158015610df2573d6000803e3d6000fd5b505050505050565b60096020528160005260406000206020528060005260406000206000915091509054906101000a900460ff1681565b600360009054906101000a900473ffffffffffffffffffffffffffffffffffffffff1681565b600015156008600083815260200190815260200160002060009054906101000a900460ff1615151415610efb576007600082815260200190815260200160002060009054906101000a900473ffffffffffffffffffffffffffffffffffffffff1673ffffffffffffffffffffffffffffffffffffffff166108fc479081150290604051600060405180830381858888f19350505050158015610ef5573d6000803e3d6000fd5b50610f65565b600160009054906101000a900473ffffffffffffffffffffffffffffffffffffffff1673ffffffffffffffffffffffffffffffffffffffff166108fc479081150290604051600060405180830381858888f19350505050158015610f63573d6000803e3d6000fd5b505b50565b806007600082815260200190815260200160002060009054906101000a900473ffffffffffffffffffffffffffffffffffffffff1673ffffffffffffffffffffffffffffffffffffffff163373ffffffffffffffffffffffffffffffffffffffff161461100a576040517f08c379a0000000000000000000000000000000000000000000000000000000008152600401611001906114da565b60405180910390fd5b6006600083815260200190815260200160002054341015611060576040517f08c379a0000000000000000000000000000000000000000000000000000000008152600401611057906114ba565b60405180910390fd5b5050565b600260009054906101000a900473ffffffffffffffffffffffffffffffffffffffff1681565b60046020528060005260406000206000915054906101000a900460ff1681565b6000813590506110b98161177c565b92915050565b6000813590506110ce81611793565b92915050565b6000813590506110e3816117aa565b92915050565b6000813590506110f8816117c1565b92915050565b60006020828403121561111057600080fd5b600061111e848285016110aa565b91505092915050565b60008060006060848603121561113c57600080fd5b600061114a868287016110aa565b935050602061115b868287016110bf565b925050604061116c868287016110aa565b9150509250925092565b60006020828403121561118857600080fd5b6000611196848285016110e9565b91505092915050565b600080604083850312156111b257600080fd5b60006111c0858286016110e9565b92505060206111d1858286016110aa565b9150509250929050565b600080604083850312156111ee57600080fd5b60006111fc858286016110e9565b925050602061120d858286016110d4565b9150509250929050565b60008060006060848603121561122c57600080fd5b600061123a868287016110e9565b935050602061124b868287016110e9565b925050604061125c868287016110e9565b9150509250925092565b61126f816115c3565b82525050565b61127e816115b1565b82525050565b61128d816115d5565b82525050565b60006112a0601e836115a0565b91506112ab8261160b565b602082019050919050565b60006112c36011836115a0565b91506112ce82611634565b602082019050919050565b60006112e66016836115a0565b91506112f18261165d565b602082019050919050565b6000611309601f836115a0565b915061131482611686565b602082019050919050565b600061132c6018836115a0565b9150611337826116af565b602082019050919050565b600061134f6011836115a0565b915061135a826116d8565b602082019050919050565b60006113726023836115a0565b915061137d82611701565b604082019050919050565b6000611395600083611595565b91506113a082611750565b600082019050919050565b60006113b86012836115a0565b91506113c382611753565b602082019050919050565b6113d781611601565b82525050565b60006113e882611388565b9150819050919050565b60006020820190506114076000830184611275565b92915050565b60006020820190506114226000830184611266565b92915050565b600060608201905061143d6000830186611275565b61144a6020830185611275565b61145760408301846113ce565b949350505050565b60006020820190506114746000830184611284565b92915050565b6000602082019050818103600083015261149381611293565b9050919050565b600060208201905081810360008301526114b3816112b6565b9050919050565b600060208201905081810360008301526114d3816112d9565b9050919050565b600060208201905081810360008301526114f3816112fc565b9050919050565b600060208201905081810360008301526115138161131f565b9050919050565b6000602082019050818103600083015261153381611342565b9050919050565b6000602082019050818103600083015261155381611365565b9050919050565b60006020820190508181036000830152611573816113ab565b9050919050565b600060208201905061158f60008301846113ce565b92915050565b600081905092915050565b600082825260208201905092915050565b60006115bc826115e1565b9050919050565b60006115ce826115e1565b9050919050565b60008115159050919050565b600073ffffffffffffffffffffffffffffffffffffffff82169050919050565b6000819050919050565b7f70617961626c65206661696c656420696e2066696e616c697a6553616c650000600082015250565b7f6e6f20656e6f7567682062616c616e6365000000000000000000000000000000600082015250565b7f6465706f73697420616d6f756e74206973206c65737300000000000000000000600082015250565b7f4f6e6c792062757965722063616e2063616c6c2074686973206d6574686f6400600082015250565b7f6c656e64657220617070726f76616c2072657175697265640000000000000000600082015250565b7f617070726f76616c207265717569726564000000000000000000000000000000600082015250565b7f4f6e6c7920696e73706563746f722063616e2063616c6c2074686973206d657460008201527f686f640000000000000000000000000000000000000000000000000000000000602082015250565b50565b7f20617070726f76616c2072657175697265640000000000000000000000000000600082015250565b611785816115b1565b811461179057600080fd5b50565b61179c816115c3565b81146117a757600080fd5b50565b6117b3816115d5565b81146117be57600080fd5b50565b6117ca81611601565b81146117d557600080fd5b5056fea26469706673582212205dd35c043eaab3b732b2f32b10e085128b2a9f99d71d2d91eb1d69c300e0ef5e64736f6c63430008010033",
  "immutableReferences": {},
  "source": "//SPDX-License-Identifier: Unlicense\npragma solidity ^0.8.1;\n\ninterface IERC721 {\n    function transferFrom(address _from, address _to, uint256 _id) external;\n}\n\ncontract Escrow {\n    address public nftAddress;\n    address payable public seller;\n    address public inspector;\n    address public lender;\n\n    modifier onlyBuyer(uint256 _nftID) {\n        require(msg.sender == buyer[_nftID], \"Only buyer can call this method\");\n        _;\n    }\n\n    modifier onlySeller() {\n        require(msg.sender == seller, \"Only seller can call this method\");\n        _;\n    }\n\n    modifier onlyInspector() {\n        require(msg.sender == inspector, \"Only inspector can call this method\");\n        _;\n    }\n\n    mapping(uint256 => bool) public isListed;\n    mapping(uint256 => uint256) public purchasePrice;\n    mapping(uint256 => uint256) public escrowAmount;\n    mapping(uint256 => address) public buyer;\n    mapping(uint256 => bool) public inspectionPassed;\n    mapping(uint256 => mapping(address => bool)) public approval;\n\n    // constructor(address _nftAddress, address payable _seller, address _inspector, address _lender) {\n    //     nftAddress = _nftAddress;\n    //     seller = _seller;\n    //     inspector = _inspector;\n    //     lender = _lender;\n    // }\n\n    constructor(){}\n\n    function init (address _nftAddress, address payable _seller, address _inspector) public returns(address) {\n        nftAddress = _nftAddress;\n        seller = _seller;\n        inspector = _inspector;\n        return nftAddress;\n    }\n\n    function setLender(address _lender) public {\n        lender = _lender;\n    }\n\n    function list(uint256 _nftID, uint256 _purchasePrice, uint256 _escrowAmount) public payable returns(address){\n        IERC721(nftAddress).transferFrom(msg.sender, address(this), _nftID);\n\n        isListed[_nftID] = true;\n        purchasePrice[_nftID] = _purchasePrice;\n        escrowAmount[_nftID] = _escrowAmount;\n\n        return seller;\n    }\n\n    function setByuer(uint256 _nftID, address _buyer) public {\n        buyer[_nftID] = _buyer;\n    }\n\n    function depositEarnest(uint256 _nftID) public payable onlyBuyer(_nftID) {\n        require(msg.value >= escrowAmount[_nftID], 'deposit amount is less');\n    }\n\n    function updateInspectionStatus(uint256 _nftID, bool _passed) public onlyInspector {\n        inspectionPassed[_nftID] = true;\n    }\n\n    function approveSale(uint256 _nftID) public {\n        approval[_nftID][msg.sender] = true;\n    }\n\n    function finalizeSale(uint256 _nftID) public {\n        // require(inspectionPassed[_nftID], 'insepction failed');\n        require(approval[_nftID][buyer[_nftID]], 'approval required');\n        require(approval[_nftID][seller], ' approval required');\n        require(approval[_nftID][lender], 'lender approval required');\n        require(address(this).balance >= purchasePrice[_nftID], 'no enough balance');\n\n        isListed[_nftID] = false;\n\n        (bool success, ) = payable(seller).call{value: address(this).balance}(\"\");\n        require(success, 'payable failed in finalizeSale');\n\n        IERC721(nftAddress).transferFrom(address(this), buyer[_nftID], _nftID);\n    }\n\n    function cancelSale(uint256 _nftID) public {\n        if (inspectionPassed[_nftID] == false) {\n            payable(buyer[_nftID]).transfer(address(this).balance);\n        } else {\n            payable(seller).transfer(address(this).balance);\n        }\n    }\n\n    receive() external payable {}\n\n    function getBalance() public view returns (uint256) {\n        return address(this).balance;\n    }\n}",
  "sourcePath": "/home/patil/benami-transaction-prohibition/backend/solidiy/contracts/Escrow.sol",
  "compiler": {
    "name": "solc",
    "version": "0.8.1+commit.df193b15.Emscripten.clang"
  },
  "schemaVersion": "3.4.16",
  "updatedAt": "2023-11-27T03:00:02.683Z",
  "networkType": "ethereum",
  "devdoc": {
    "kind": "dev",
    "methods": {},
    "version": 1
  },
  "userdoc": {
    "kind": "user",
    "methods": {},
    "version": 1
  }
}