{
  "contractName": "Escrow",
  "abi": [
    {
      "inputs": [],
      "stateMutability": "nonpayable",
      "type": "constructor"
    },
    {
      "inputs": [
        {
          "internalType": "uint256",
          "name": "",
          "type": "uint256"
        },
        {
          "internalType": "address",
          "name": "",
          "type": "address"
        }
      ],
      "name": "approval",
      "outputs": [
        {
          "internalType": "bool",
          "name": "",
          "type": "bool"
        }
      ],
      "stateMutability": "view",
      "type": "function",
      "constant": true
    },
    {
      "inputs": [
        {
          "internalType": "uint256",
          "name": "",
          "type": "uint256"
        }
      ],
      "name": "buyer",
      "outputs": [
        {
          "internalType": "address",
          "name": "",
          "type": "address"
        }
      ],
      "stateMutability": "view",
      "type": "function",
      "constant": true
    },
    {
      "inputs": [
        {
          "internalType": "uint256",
          "name": "",
          "type": "uint256"
        }
      ],
      "name": "escrowAmount",
      "outputs": [
        {
          "internalType": "uint256",
          "name": "",
          "type": "uint256"
        }
      ],
      "stateMutability": "view",
      "type": "function",
      "constant": true
    },
    {
      "inputs": [
        {
          "internalType": "uint256",
          "name": "",
          "type": "uint256"
        }
      ],
      "name": "inspectionPassed",
      "outputs": [
        {
          "internalType": "bool",
          "name": "",
          "type": "bool"
        }
      ],
      "stateMutability": "view",
      "type": "function",
      "constant": true
    },
    {
      "inputs": [],
      "name": "inspector",
      "outputs": [
        {
          "internalType": "address",
          "name": "",
          "type": "address"
        }
      ],
      "stateMutability": "view",
      "type": "function",
      "constant": true
    },
    {
      "inputs": [
        {
          "internalType": "uint256",
          "name": "",
          "type": "uint256"
        }
      ],
      "name": "isListed",
      "outputs": [
        {
          "internalType": "bool",
          "name": "",
          "type": "bool"
        }
      ],
      "stateMutability": "view",
      "type": "function",
      "constant": true
    },
    {
      "inputs": [],
      "name": "lender",
      "outputs": [
        {
          "internalType": "address",
          "name": "",
          "type": "address"
        }
      ],
      "stateMutability": "view",
      "type": "function",
      "constant": true
    },
    {
      "inputs": [],
      "name": "nftAddress",
      "outputs": [
        {
          "internalType": "address",
          "name": "",
          "type": "address"
        }
      ],
      "stateMutability": "view",
      "type": "function",
      "constant": true
    },
    {
      "inputs": [
        {
          "internalType": "uint256",
          "name": "",
          "type": "uint256"
        }
      ],
      "name": "purchasePrice",
      "outputs": [
        {
          "internalType": "uint256",
          "name": "",
          "type": "uint256"
        }
      ],
      "stateMutability": "view",
      "type": "function",
      "constant": true
    },
    {
      "inputs": [],
      "name": "seller",
      "outputs": [
        {
          "internalType": "address payable",
          "name": "",
          "type": "address"
        }
      ],
      "stateMutability": "view",
      "type": "function",
      "constant": true
    },
    {
      "stateMutability": "payable",
      "type": "receive",
      "payable": true
    },
    {
      "inputs": [
        {
          "internalType": "address",
          "name": "_nftAddress",
          "type": "address"
        },
        {
          "internalType": "address payable",
          "name": "_seller",
          "type": "address"
        },
        {
          "internalType": "address",
          "name": "_inspector",
          "type": "address"
        },
        {
          "internalType": "address",
          "name": "_lender",
          "type": "address"
        }
      ],
      "name": "init",
      "outputs": [],
      "stateMutability": "nonpayable",
      "type": "function"
    },
    {
      "inputs": [
        {
          "internalType": "uint256",
          "name": "_nftID",
          "type": "uint256"
        },
        {
          "internalType": "uint256",
          "name": "_purchasePrice",
          "type": "uint256"
        },
        {
          "internalType": "uint256",
          "name": "_escrowAmount",
          "type": "uint256"
        }
      ],
      "name": "list",
      "outputs": [],
      "stateMutability": "payable",
      "type": "function",
      "payable": true
    },
    {
      "inputs": [
        {
          "internalType": "uint256",
          "name": "_nftID",
          "type": "uint256"
        },
        {
          "internalType": "address",
          "name": "_buyer",
          "type": "address"
        }
      ],
      "name": "setByuer",
      "outputs": [],
      "stateMutability": "nonpayable",
      "type": "function"
    },
    {
      "inputs": [
        {
          "internalType": "uint256",
          "name": "_nftID",
          "type": "uint256"
        }
      ],
      "name": "depositEarnest",
      "outputs": [],
      "stateMutability": "payable",
      "type": "function",
      "payable": true
    },
    {
      "inputs": [
        {
          "internalType": "uint256",
          "name": "_nftID",
          "type": "uint256"
        },
        {
          "internalType": "bool",
          "name": "_passed",
          "type": "bool"
        }
      ],
      "name": "updateInspectionStatus",
      "outputs": [],
      "stateMutability": "nonpayable",
      "type": "function"
    },
    {
      "inputs": [
        {
          "internalType": "uint256",
          "name": "_nftID",
          "type": "uint256"
        }
      ],
      "name": "approveSale",
      "outputs": [],
      "stateMutability": "nonpayable",
      "type": "function"
    },
    {
      "inputs": [
        {
          "internalType": "uint256",
          "name": "_nftID",
          "type": "uint256"
        }
      ],
      "name": "finalizeSale",
      "outputs": [],
      "stateMutability": "nonpayable",
      "type": "function"
    },
    {
      "inputs": [
        {
          "internalType": "uint256",
          "name": "_nftID",
          "type": "uint256"
        }
      ],
      "name": "cancelSale",
      "outputs": [],
      "stateMutability": "nonpayable",
      "type": "function"
    },
    {
      "inputs": [],
      "name": "getBalance",
      "outputs": [
        {
          "internalType": "uint256",
          "name": "",
          "type": "uint256"
        }
      ],
      "stateMutability": "view",
      "type": "function",
      "constant": true
    }
  ],
  "bytecode": "0x608060405234801561001057600080fd5b506114a3806100206000396000f3fe6080604052600436106101185760003560e01c806377fbc4ae116100a0578063bcead63e11610064578063bcead63e146103bf578063bd94b005146103ea578063e740f77014610413578063ed2cee9e1461042f578063fcce48831461045a5761011f565b806377fbc4ae146102ca5780639d0e5fd614610307578063a3fab7c314610330578063aa92938014610359578063b848de35146103825761011f565b806319aeb490116100e757806319aeb490146101cc5780634dd4acaf146101e85780635bf8633a146102255780635d19e56c146102505780635eed5fff1461028d5761011f565b806306552ff31461012457806308551a531461014d57806312065fe01461017857806314a72feb146101a35761011f565b3661011f57005b600080fd5b34801561013057600080fd5b5061014b60048036038101906101469190610fc4565b610497565b005b34801561015957600080fd5b506101626105a0565b60405161016f919061120f565b60405180910390f35b34801561018457600080fd5b5061018d6105c6565b60405161019a91906112dc565b60405180910390f35b3480156101af57600080fd5b506101ca60048036038101906101c59190611027565b6105ce565b005b6101e660048036038101906101e191906110c8565b61063a565b005b3480156101f457600080fd5b5061020f600480360381019061020a9190611027565b6107ba565b60405161021c91906111f4565b60405180910390f35b34801561023157600080fd5b5061023a6107ed565b60405161024791906111f4565b60405180910390f35b34801561025c57600080fd5b5061027760048036038101906102729190611027565b610811565b60405161028491906112dc565b60405180910390f35b34801561029957600080fd5b506102b460048036038101906102af9190611027565b610829565b6040516102c19190611261565b60405180910390f35b3480156102d657600080fd5b506102f160048036038101906102ec9190611027565b610849565b6040516102fe91906112dc565b60405180910390f35b34801561031357600080fd5b5061032e6004803603810190610329919061108c565b610861565b005b34801561033c57600080fd5b5061035760048036038101906103529190611050565b610920565b005b34801561036557600080fd5b50610380600480360381019061037b9190611027565b610976565b005b34801561038e57600080fd5b506103a960048036038101906103a49190611050565b610cf6565b6040516103b69190611261565b60405180910390f35b3480156103cb57600080fd5b506103d4610d25565b6040516103e191906111f4565b60405180910390f35b3480156103f657600080fd5b50610411600480360381019061040c9190611027565b610d4b565b005b61042d60048036038101906104289190611027565b610e64565b005b34801561043b57600080fd5b50610444610f2a565b60405161045191906111f4565b60405180910390f35b34801561046657600080fd5b50610481600480360381019061047c9190611027565b610f50565b60405161048e9190611261565b60405180910390f35b836000806101000a81548173ffffffffffffffffffffffffffffffffffffffff021916908373ffffffffffffffffffffffffffffffffffffffff16021790555082600160006101000a81548173ffffffffffffffffffffffffffffffffffffffff021916908373ffffffffffffffffffffffffffffffffffffffff16021790555081600260006101000a81548173ffffffffffffffffffffffffffffffffffffffff021916908373ffffffffffffffffffffffffffffffffffffffff16021790555080600360006101000a81548173ffffffffffffffffffffffffffffffffffffffff021916908373ffffffffffffffffffffffffffffffffffffffff16021790555050505050565b600160009054906101000a900473ffffffffffffffffffffffffffffffffffffffff1681565b600047905090565b60016009600083815260200190815260200160002060003373ffffffffffffffffffffffffffffffffffffffff1673ffffffffffffffffffffffffffffffffffffffff16815260200190815260200160002060006101000a81548160ff02191690831515021790555050565b600160009054906101000a900473ffffffffffffffffffffffffffffffffffffffff1673ffffffffffffffffffffffffffffffffffffffff163373ffffffffffffffffffffffffffffffffffffffff16146106ca576040517f08c379a00000000000000000000000000000000000000000000000000000000081526004016106c19061127c565b60405180910390fd5b60008054906101000a900473ffffffffffffffffffffffffffffffffffffffff1673ffffffffffffffffffffffffffffffffffffffff166323b872dd3330866040518463ffffffff1660e01b81526004016107279392919061122a565b600060405180830381600087803b15801561074157600080fd5b505af1158015610755573d6000803e3d6000fd5b5050505060016004600085815260200190815260200160002060006101000a81548160ff021916908315150217905550816005600085815260200190815260200160002081905550806006600085815260200190815260200160002081905550505050565b60076020528060005260406000206000915054906101000a900473ffffffffffffffffffffffffffffffffffffffff1681565b60008054906101000a900473ffffffffffffffffffffffffffffffffffffffff1681565b60066020528060005260406000206000915090505481565b60086020528060005260406000206000915054906101000a900460ff1681565b60056020528060005260406000206000915090505481565b600260009054906101000a900473ffffffffffffffffffffffffffffffffffffffff1673ffffffffffffffffffffffffffffffffffffffff163373ffffffffffffffffffffffffffffffffffffffff16146108f1576040517f08c379a00000000000000000000000000000000000000000000000000000000081526004016108e8906112bc565b60405180910390fd5b806008600084815260200190815260200160002060006101000a81548160ff0219169083151502179055505050565b806007600084815260200190815260200160002060006101000a81548173ffffffffffffffffffffffffffffffffffffffff021916908373ffffffffffffffffffffffffffffffffffffffff1602179055505050565b6008600082815260200190815260200160002060009054906101000a900460ff166109a057600080fd5b6009600082815260200190815260200160002060006007600084815260200190815260200160002060009054906101000a900473ffffffffffffffffffffffffffffffffffffffff1673ffffffffffffffffffffffffffffffffffffffff1673ffffffffffffffffffffffffffffffffffffffff16815260200190815260200160002060009054906101000a900460ff16610a3a57600080fd5b600960008281526020019081526020016000206000600160009054906101000a900473ffffffffffffffffffffffffffffffffffffffff1673ffffffffffffffffffffffffffffffffffffffff1673ffffffffffffffffffffffffffffffffffffffff16815260200190815260200160002060009054906101000a900460ff16610ac357600080fd5b600960008281526020019081526020016000206000600360009054906101000a900473ffffffffffffffffffffffffffffffffffffffff1673ffffffffffffffffffffffffffffffffffffffff1673ffffffffffffffffffffffffffffffffffffffff16815260200190815260200160002060009054906101000a900460ff16610b4c57600080fd5b6005600082815260200190815260200160002054471015610b6c57600080fd5b60006004600083815260200190815260200160002060006101000a81548160ff0219169083151502179055506000600160009054906101000a900473ffffffffffffffffffffffffffffffffffffffff1673ffffffffffffffffffffffffffffffffffffffff1647604051610be0906111df565b60006040518083038185875af1925050503d8060008114610c1d576040519150601f19603f3d011682016040523d82523d6000602084013e610c22565b606091505b5050905080610c3057600080fd5b60008054906101000a900473ffffffffffffffffffffffffffffffffffffffff1673ffffffffffffffffffffffffffffffffffffffff166323b872dd306007600086815260200190815260200160002060009054906101000a900473ffffffffffffffffffffffffffffffffffffffff16856040518463ffffffff1660e01b8152600401610cc09392919061122a565b600060405180830381600087803b158015610cda57600080fd5b505af1158015610cee573d6000803e3d6000fd5b505050505050565b60096020528160005260406000206020528060005260406000206000915091509054906101000a900460ff1681565b600360009054906101000a900473ffffffffffffffffffffffffffffffffffffffff1681565b600015156008600083815260200190815260200160002060009054906101000a900460ff1615151415610df7576007600082815260200190815260200160002060009054906101000a900473ffffffffffffffffffffffffffffffffffffffff1673ffffffffffffffffffffffffffffffffffffffff166108fc479081150290604051600060405180830381858888f19350505050158015610df1573d6000803e3d6000fd5b50610e61565b600160009054906101000a900473ffffffffffffffffffffffffffffffffffffffff1673ffffffffffffffffffffffffffffffffffffffff166108fc479081150290604051600060405180830381858888f19350505050158015610e5f573d6000803e3d6000fd5b505b50565b806007600082815260200190815260200160002060009054906101000a900473ffffffffffffffffffffffffffffffffffffffff1673ffffffffffffffffffffffffffffffffffffffff163373ffffffffffffffffffffffffffffffffffffffff1614610f06576040517f08c379a0000000000000000000000000000000000000000000000000000000008152600401610efd9061129c565b60405180910390fd5b6006600083815260200190815260200160002054341015610f2657600080fd5b5050565b600260009054906101000a900473ffffffffffffffffffffffffffffffffffffffff1681565b60046020528060005260406000206000915054906101000a900460ff1681565b600081359050610f7f81611411565b92915050565b600081359050610f9481611428565b92915050565b600081359050610fa98161143f565b92915050565b600081359050610fbe81611456565b92915050565b60008060008060808587031215610fda57600080fd5b6000610fe887828801610f70565b9450506020610ff987828801610f85565b935050604061100a87828801610f70565b925050606061101b87828801610f70565b91505092959194509250565b60006020828403121561103957600080fd5b600061104784828501610faf565b91505092915050565b6000806040838503121561106357600080fd5b600061107185828601610faf565b925050602061108285828601610f70565b9150509250929050565b6000806040838503121561109f57600080fd5b60006110ad85828601610faf565b92505060206110be85828601610f9a565b9150509250929050565b6000806000606084860312156110dd57600080fd5b60006110eb86828701610faf565b93505060206110fc86828701610faf565b925050604061110d86828701610faf565b9150509250925092565b61112081611325565b82525050565b61112f81611313565b82525050565b61113e81611337565b82525050565b6000611151602083611302565b915061115c8261136d565b602082019050919050565b6000611174601f83611302565b915061117f82611396565b602082019050919050565b6000611197602383611302565b91506111a2826113bf565b604082019050919050565b60006111ba6000836112f7565b91506111c58261140e565b600082019050919050565b6111d981611363565b82525050565b60006111ea826111ad565b9150819050919050565b60006020820190506112096000830184611126565b92915050565b60006020820190506112246000830184611117565b92915050565b600060608201905061123f6000830186611126565b61124c6020830185611126565b61125960408301846111d0565b949350505050565b60006020820190506112766000830184611135565b92915050565b6000602082019050818103600083015261129581611144565b9050919050565b600060208201905081810360008301526112b581611167565b9050919050565b600060208201905081810360008301526112d58161118a565b9050919050565b60006020820190506112f160008301846111d0565b92915050565b600081905092915050565b600082825260208201905092915050565b600061131e82611343565b9050919050565b600061133082611343565b9050919050565b60008115159050919050565b600073ffffffffffffffffffffffffffffffffffffffff82169050919050565b6000819050919050565b7f4f6e6c792073656c6c65722063616e2063616c6c2074686973206d6574686f64600082015250565b7f4f6e6c792062757965722063616e2063616c6c2074686973206d6574686f6400600082015250565b7f4f6e6c7920696e73706563746f722063616e2063616c6c2074686973206d657460008201527f686f640000000000000000000000000000000000000000000000000000000000602082015250565b50565b61141a81611313565b811461142557600080fd5b50565b61143181611325565b811461143c57600080fd5b50565b61144881611337565b811461145357600080fd5b50565b61145f81611363565b811461146a57600080fd5b5056fea264697066735822122086a05bc4edbb6b83a9f97efc1874dfa7f7d0524cebc4808e8e9a6f638e17cb6964736f6c63430008010033",
  "immutableReferences": {},
  "source": "//SPDX-License-Identifier: Unlicense\npragma solidity ^0.8.1;\n\ninterface IERC721 {\n    function transferFrom(address _from, address _to, uint256 _id) external;\n}\n\ncontract Escrow {\n    address public nftAddress;\n    address payable public seller;\n    address public inspector;\n    address public lender;\n\n    modifier onlyBuyer(uint256 _nftID) {\n        require(msg.sender == buyer[_nftID], \"Only buyer can call this method\");\n        _;\n    }\n\n    modifier onlySeller() {\n        require(msg.sender == seller, \"Only seller can call this method\");\n        _;\n    }\n\n    modifier onlyInspector() {\n        require(msg.sender == inspector, \"Only inspector can call this method\");\n        _;\n    }\n\n    mapping(uint256 => bool) public isListed;\n    mapping(uint256 => uint256) public purchasePrice;\n    mapping(uint256 => uint256) public escrowAmount;\n    mapping(uint256 => address) public buyer;\n    mapping(uint256 => bool) public inspectionPassed;\n    mapping(uint256 => mapping(address => bool)) public approval;\n\n    // constructor(address _nftAddress, address payable _seller, address _inspector, address _lender) {\n    //     nftAddress = _nftAddress;\n    //     seller = _seller;\n    //     inspector = _inspector;\n    //     lender = _lender;\n    // }\n\n    constructor(){}\n\n    function init (address _nftAddress, address payable _seller, address _inspector, address _lender) public {\n        nftAddress = _nftAddress;\n        seller = _seller;\n        inspector = _inspector;\n        lender = _lender;\n    }\n\n    function list(uint256 _nftID, uint256 _purchasePrice, uint256 _escrowAmount) public payable onlySeller {\n        IERC721(nftAddress).transferFrom(msg.sender, address(this), _nftID);\n\n        isListed[_nftID] = true;\n        purchasePrice[_nftID] = _purchasePrice;\n        escrowAmount[_nftID] = _escrowAmount;\n    }\n\n    function setByuer(uint256 _nftID, address _buyer) public {\n        buyer[_nftID] = _buyer;\n    }\n\n    function depositEarnest(uint256 _nftID) public payable onlyBuyer(_nftID) {\n        require(msg.value >= escrowAmount[_nftID]);\n    }\n\n    function updateInspectionStatus(uint256 _nftID, bool _passed) public onlyInspector {\n        inspectionPassed[_nftID] = _passed;\n    }\n\n    function approveSale(uint256 _nftID) public {\n        approval[_nftID][msg.sender] = true;\n    }\n\n    function finalizeSale(uint256 _nftID) public {\n        require(inspectionPassed[_nftID]);\n        require(approval[_nftID][buyer[_nftID]]);\n        require(approval[_nftID][seller]);\n        require(approval[_nftID][lender]);\n        require(address(this).balance >= purchasePrice[_nftID]);\n\n        isListed[_nftID] = false;\n\n        (bool success, ) = payable(seller).call{value: address(this).balance}(\"\");\n        require(success);\n\n        IERC721(nftAddress).transferFrom(address(this), buyer[_nftID], _nftID);\n    }\n\n    function cancelSale(uint256 _nftID) public {\n        if (inspectionPassed[_nftID] == false) {\n            payable(buyer[_nftID]).transfer(address(this).balance);\n        } else {\n            payable(seller).transfer(address(this).balance);\n        }\n    }\n\n    receive() external payable {}\n\n    function getBalance() public view returns (uint256) {\n        return address(this).balance;\n    }\n}",
  "sourcePath": "/home/patil/benami-transaction-prohibition/backend/solidiy/contracts/Escrow.sol",
  "compiler": {
    "name": "solc",
    "version": "0.8.1+commit.df193b15.Emscripten.clang"
  },
  "schemaVersion": "3.4.14",
  "updatedAt": "2023-08-14T21:45:49.981Z",
  "networkType": "ethereum",
  "devdoc": {
    "kind": "dev",
    "methods": {},
    "version": 1
  },
  "userdoc": {
    "kind": "user",
    "methods": {},
    "version": 1
  }
}