{
  "contractName": "Escrow",
  "abi": [
    {
      "inputs": [],
      "stateMutability": "nonpayable",
      "type": "constructor"
    },
    {
      "inputs": [
        {
          "internalType": "uint256",
          "name": "",
          "type": "uint256"
        },
        {
          "internalType": "address",
          "name": "",
          "type": "address"
        }
      ],
      "name": "approval",
      "outputs": [
        {
          "internalType": "bool",
          "name": "",
          "type": "bool"
        }
      ],
      "stateMutability": "view",
      "type": "function",
      "constant": true
    },
    {
      "inputs": [
        {
          "internalType": "uint256",
          "name": "",
          "type": "uint256"
        }
      ],
      "name": "buyer",
      "outputs": [
        {
          "internalType": "address",
          "name": "",
          "type": "address"
        }
      ],
      "stateMutability": "view",
      "type": "function",
      "constant": true
    },
    {
      "inputs": [
        {
          "internalType": "uint256",
          "name": "",
          "type": "uint256"
        }
      ],
      "name": "escrowAmount",
      "outputs": [
        {
          "internalType": "uint256",
          "name": "",
          "type": "uint256"
        }
      ],
      "stateMutability": "view",
      "type": "function",
      "constant": true
    },
    {
      "inputs": [
        {
          "internalType": "uint256",
          "name": "",
          "type": "uint256"
        }
      ],
      "name": "inspectionPassed",
      "outputs": [
        {
          "internalType": "bool",
          "name": "",
          "type": "bool"
        }
      ],
      "stateMutability": "view",
      "type": "function",
      "constant": true
    },
    {
      "inputs": [],
      "name": "inspector",
      "outputs": [
        {
          "internalType": "address",
          "name": "",
          "type": "address"
        }
      ],
      "stateMutability": "view",
      "type": "function",
      "constant": true
    },
    {
      "inputs": [
        {
          "internalType": "uint256",
          "name": "",
          "type": "uint256"
        }
      ],
      "name": "isListed",
      "outputs": [
        {
          "internalType": "bool",
          "name": "",
          "type": "bool"
        }
      ],
      "stateMutability": "view",
      "type": "function",
      "constant": true
    },
    {
      "inputs": [],
      "name": "lender",
      "outputs": [
        {
          "internalType": "address",
          "name": "",
          "type": "address"
        }
      ],
      "stateMutability": "view",
      "type": "function",
      "constant": true
    },
    {
      "inputs": [],
      "name": "nftAddress",
      "outputs": [
        {
          "internalType": "address",
          "name": "",
          "type": "address"
        }
      ],
      "stateMutability": "view",
      "type": "function",
      "constant": true
    },
    {
      "inputs": [
        {
          "internalType": "uint256",
          "name": "",
          "type": "uint256"
        }
      ],
      "name": "purchasePrice",
      "outputs": [
        {
          "internalType": "uint256",
          "name": "",
          "type": "uint256"
        }
      ],
      "stateMutability": "view",
      "type": "function",
      "constant": true
    },
    {
      "inputs": [],
      "name": "seller",
      "outputs": [
        {
          "internalType": "address payable",
          "name": "",
          "type": "address"
        }
      ],
      "stateMutability": "view",
      "type": "function",
      "constant": true
    },
    {
      "stateMutability": "payable",
      "type": "receive",
      "payable": true
    },
    {
      "inputs": [
        {
          "internalType": "address",
          "name": "_nftAddress",
          "type": "address"
        },
        {
          "internalType": "address payable",
          "name": "_seller",
          "type": "address"
        },
        {
          "internalType": "address",
          "name": "_inspector",
          "type": "address"
        },
        {
          "internalType": "address",
          "name": "_lender",
          "type": "address"
        }
      ],
      "name": "init",
      "outputs": [
        {
          "internalType": "address",
          "name": "",
          "type": "address"
        }
      ],
      "stateMutability": "nonpayable",
      "type": "function"
    },
    {
      "inputs": [
        {
          "internalType": "uint256",
          "name": "_nftID",
          "type": "uint256"
        },
        {
          "internalType": "uint256",
          "name": "_purchasePrice",
          "type": "uint256"
        },
        {
          "internalType": "uint256",
          "name": "_escrowAmount",
          "type": "uint256"
        }
      ],
      "name": "list",
      "outputs": [
        {
          "internalType": "address",
          "name": "",
          "type": "address"
        }
      ],
      "stateMutability": "payable",
      "type": "function",
      "payable": true
    },
    {
      "inputs": [
        {
          "internalType": "uint256",
          "name": "_nftID",
          "type": "uint256"
        },
        {
          "internalType": "address",
          "name": "_buyer",
          "type": "address"
        }
      ],
      "name": "setByuer",
      "outputs": [],
      "stateMutability": "nonpayable",
      "type": "function"
    },
    {
      "inputs": [
        {
          "internalType": "uint256",
          "name": "_nftID",
          "type": "uint256"
        }
      ],
      "name": "depositEarnest",
      "outputs": [],
      "stateMutability": "payable",
      "type": "function",
      "payable": true
    },
    {
      "inputs": [
        {
          "internalType": "uint256",
          "name": "_nftID",
          "type": "uint256"
        },
        {
          "internalType": "bool",
          "name": "_passed",
          "type": "bool"
        }
      ],
      "name": "updateInspectionStatus",
      "outputs": [],
      "stateMutability": "nonpayable",
      "type": "function"
    },
    {
      "inputs": [
        {
          "internalType": "uint256",
          "name": "_nftID",
          "type": "uint256"
        }
      ],
      "name": "approveSale",
      "outputs": [],
      "stateMutability": "nonpayable",
      "type": "function"
    },
    {
      "inputs": [
        {
          "internalType": "uint256",
          "name": "_nftID",
          "type": "uint256"
        }
      ],
      "name": "finalizeSale",
      "outputs": [],
      "stateMutability": "nonpayable",
      "type": "function"
    },
    {
      "inputs": [
        {
          "internalType": "uint256",
          "name": "_nftID",
          "type": "uint256"
        }
      ],
      "name": "cancelSale",
      "outputs": [],
      "stateMutability": "nonpayable",
      "type": "function"
    },
    {
      "inputs": [],
      "name": "getBalance",
      "outputs": [
        {
          "internalType": "uint256",
          "name": "",
          "type": "uint256"
        }
      ],
      "stateMutability": "view",
      "type": "function",
      "constant": true
    }
  ],
  "bytecode": "0x608060405234801561001057600080fd5b50611420806100206000396000f3fe6080604052600436106101185760003560e01c806377fbc4ae116100a0578063bcead63e11610064578063bcead63e146103e7578063bd94b00514610412578063e740f7701461043b578063ed2cee9e14610457578063fcce4883146104825761011f565b806377fbc4ae146102f25780639d0e5fd61461032f578063a3fab7c314610358578063aa92938014610381578063b848de35146103aa5761011f565b806319aeb490116100e757806319aeb490146101e05780634dd4acaf146102105780635bf8633a1461024d5780635d19e56c146102785780635eed5fff146102b55761011f565b806306552ff31461012457806308551a531461016157806312065fe01461018c57806314a72feb146101b75761011f565b3661011f57005b600080fd5b34801561013057600080fd5b5061014b60048036038101906101469190610fad565b6104bf565b60405161015891906111ba565b60405180910390f35b34801561016d57600080fd5b506101766105ef565b60405161018391906111d5565b60405180910390f35b34801561019857600080fd5b506101a1610615565b6040516101ae9190611282565b60405180910390f35b3480156101c357600080fd5b506101de60048036038101906101d99190611010565b61061d565b005b6101fa60048036038101906101f591906110b1565b610689565b60405161020791906111ba565b60405180910390f35b34801561021c57600080fd5b5061023760048036038101906102329190611010565b6107a3565b60405161024491906111ba565b60405180910390f35b34801561025957600080fd5b506102626107d6565b60405161026f91906111ba565b60405180910390f35b34801561028457600080fd5b5061029f600480360381019061029a9190611010565b6107fa565b6040516102ac9190611282565b60405180910390f35b3480156102c157600080fd5b506102dc60048036038101906102d79190611010565b610812565b6040516102e99190611227565b60405180910390f35b3480156102fe57600080fd5b5061031960048036038101906103149190611010565b610832565b6040516103269190611282565b60405180910390f35b34801561033b57600080fd5b5061035660048036038101906103519190611075565b61084a565b005b34801561036457600080fd5b5061037f600480360381019061037a9190611039565b610909565b005b34801561038d57600080fd5b506103a860048036038101906103a39190611010565b61095f565b005b3480156103b657600080fd5b506103d160048036038101906103cc9190611039565b610cdf565b6040516103de9190611227565b60405180910390f35b3480156103f357600080fd5b506103fc610d0e565b60405161040991906111ba565b60405180910390f35b34801561041e57600080fd5b5061043960048036038101906104349190611010565b610d34565b005b61045560048036038101906104509190611010565b610e4d565b005b34801561046357600080fd5b5061046c610f13565b60405161047991906111ba565b60405180910390f35b34801561048e57600080fd5b506104a960048036038101906104a49190611010565b610f39565b6040516104b69190611227565b60405180910390f35b6000846000806101000a81548173ffffffffffffffffffffffffffffffffffffffff021916908373ffffffffffffffffffffffffffffffffffffffff16021790555083600160006101000a81548173ffffffffffffffffffffffffffffffffffffffff021916908373ffffffffffffffffffffffffffffffffffffffff16021790555082600260006101000a81548173ffffffffffffffffffffffffffffffffffffffff021916908373ffffffffffffffffffffffffffffffffffffffff16021790555081600360006101000a81548173ffffffffffffffffffffffffffffffffffffffff021916908373ffffffffffffffffffffffffffffffffffffffff16021790555060008054906101000a900473ffffffffffffffffffffffffffffffffffffffff169050949350505050565b600160009054906101000a900473ffffffffffffffffffffffffffffffffffffffff1681565b600047905090565b60016009600083815260200190815260200160002060003373ffffffffffffffffffffffffffffffffffffffff1673ffffffffffffffffffffffffffffffffffffffff16815260200190815260200160002060006101000a81548160ff02191690831515021790555050565b60008060009054906101000a900473ffffffffffffffffffffffffffffffffffffffff1673ffffffffffffffffffffffffffffffffffffffff166323b872dd3330876040518463ffffffff1660e01b81526004016106e9939291906111f0565b600060405180830381600087803b15801561070357600080fd5b505af1158015610717573d6000803e3d6000fd5b5050505060016004600086815260200190815260200160002060006101000a81548160ff021916908315150217905550826005600086815260200190815260200160002081905550816006600086815260200190815260200160002081905550600160009054906101000a900473ffffffffffffffffffffffffffffffffffffffff1690509392505050565b60076020528060005260406000206000915054906101000a900473ffffffffffffffffffffffffffffffffffffffff1681565b60008054906101000a900473ffffffffffffffffffffffffffffffffffffffff1681565b60066020528060005260406000206000915090505481565b60086020528060005260406000206000915054906101000a900460ff1681565b60056020528060005260406000206000915090505481565b600260009054906101000a900473ffffffffffffffffffffffffffffffffffffffff1673ffffffffffffffffffffffffffffffffffffffff163373ffffffffffffffffffffffffffffffffffffffff16146108da576040517f08c379a00000000000000000000000000000000000000000000000000000000081526004016108d190611262565b60405180910390fd5b806008600084815260200190815260200160002060006101000a81548160ff0219169083151502179055505050565b806007600084815260200190815260200160002060006101000a81548173ffffffffffffffffffffffffffffffffffffffff021916908373ffffffffffffffffffffffffffffffffffffffff1602179055505050565b6008600082815260200190815260200160002060009054906101000a900460ff1661098957600080fd5b6009600082815260200190815260200160002060006007600084815260200190815260200160002060009054906101000a900473ffffffffffffffffffffffffffffffffffffffff1673ffffffffffffffffffffffffffffffffffffffff1673ffffffffffffffffffffffffffffffffffffffff16815260200190815260200160002060009054906101000a900460ff16610a2357600080fd5b600960008281526020019081526020016000206000600160009054906101000a900473ffffffffffffffffffffffffffffffffffffffff1673ffffffffffffffffffffffffffffffffffffffff1673ffffffffffffffffffffffffffffffffffffffff16815260200190815260200160002060009054906101000a900460ff16610aac57600080fd5b600960008281526020019081526020016000206000600360009054906101000a900473ffffffffffffffffffffffffffffffffffffffff1673ffffffffffffffffffffffffffffffffffffffff1673ffffffffffffffffffffffffffffffffffffffff16815260200190815260200160002060009054906101000a900460ff16610b3557600080fd5b6005600082815260200190815260200160002054471015610b5557600080fd5b60006004600083815260200190815260200160002060006101000a81548160ff0219169083151502179055506000600160009054906101000a900473ffffffffffffffffffffffffffffffffffffffff1673ffffffffffffffffffffffffffffffffffffffff1647604051610bc9906111a5565b60006040518083038185875af1925050503d8060008114610c06576040519150601f19603f3d011682016040523d82523d6000602084013e610c0b565b606091505b5050905080610c1957600080fd5b60008054906101000a900473ffffffffffffffffffffffffffffffffffffffff1673ffffffffffffffffffffffffffffffffffffffff166323b872dd306007600086815260200190815260200160002060009054906101000a900473ffffffffffffffffffffffffffffffffffffffff16856040518463ffffffff1660e01b8152600401610ca9939291906111f0565b600060405180830381600087803b158015610cc357600080fd5b505af1158015610cd7573d6000803e3d6000fd5b505050505050565b60096020528160005260406000206020528060005260406000206000915091509054906101000a900460ff1681565b600360009054906101000a900473ffffffffffffffffffffffffffffffffffffffff1681565b600015156008600083815260200190815260200160002060009054906101000a900460ff1615151415610de0576007600082815260200190815260200160002060009054906101000a900473ffffffffffffffffffffffffffffffffffffffff1673ffffffffffffffffffffffffffffffffffffffff166108fc479081150290604051600060405180830381858888f19350505050158015610dda573d6000803e3d6000fd5b50610e4a565b600160009054906101000a900473ffffffffffffffffffffffffffffffffffffffff1673ffffffffffffffffffffffffffffffffffffffff166108fc479081150290604051600060405180830381858888f19350505050158015610e48573d6000803e3d6000fd5b505b50565b806007600082815260200190815260200160002060009054906101000a900473ffffffffffffffffffffffffffffffffffffffff1673ffffffffffffffffffffffffffffffffffffffff163373ffffffffffffffffffffffffffffffffffffffff1614610eef576040517f08c379a0000000000000000000000000000000000000000000000000000000008152600401610ee690611242565b60405180910390fd5b6006600083815260200190815260200160002054341015610f0f57600080fd5b5050565b600260009054906101000a900473ffffffffffffffffffffffffffffffffffffffff1681565b60046020528060005260406000206000915054906101000a900460ff1681565b600081359050610f688161138e565b92915050565b600081359050610f7d816113a5565b92915050565b600081359050610f92816113bc565b92915050565b600081359050610fa7816113d3565b92915050565b60008060008060808587031215610fc357600080fd5b6000610fd187828801610f59565b9450506020610fe287828801610f6e565b9350506040610ff387828801610f59565b925050606061100487828801610f59565b91505092959194509250565b60006020828403121561102257600080fd5b600061103084828501610f98565b91505092915050565b6000806040838503121561104c57600080fd5b600061105a85828601610f98565b925050602061106b85828601610f59565b9150509250929050565b6000806040838503121561108857600080fd5b600061109685828601610f98565b92505060206110a785828601610f83565b9150509250929050565b6000806000606084860312156110c657600080fd5b60006110d486828701610f98565b93505060206110e586828701610f98565b92505060406110f686828701610f98565b9150509250925092565b611109816112cb565b82525050565b611118816112b9565b82525050565b611127816112dd565b82525050565b600061113a601f836112a8565b915061114582611313565b602082019050919050565b600061115d6023836112a8565b91506111688261133c565b604082019050919050565b600061118060008361129d565b915061118b8261138b565b600082019050919050565b61119f81611309565b82525050565b60006111b082611173565b9150819050919050565b60006020820190506111cf600083018461110f565b92915050565b60006020820190506111ea6000830184611100565b92915050565b6000606082019050611205600083018661110f565b611212602083018561110f565b61121f6040830184611196565b949350505050565b600060208201905061123c600083018461111e565b92915050565b6000602082019050818103600083015261125b8161112d565b9050919050565b6000602082019050818103600083015261127b81611150565b9050919050565b60006020820190506112976000830184611196565b92915050565b600081905092915050565b600082825260208201905092915050565b60006112c4826112e9565b9050919050565b60006112d6826112e9565b9050919050565b60008115159050919050565b600073ffffffffffffffffffffffffffffffffffffffff82169050919050565b6000819050919050565b7f4f6e6c792062757965722063616e2063616c6c2074686973206d6574686f6400600082015250565b7f4f6e6c7920696e73706563746f722063616e2063616c6c2074686973206d657460008201527f686f640000000000000000000000000000000000000000000000000000000000602082015250565b50565b611397816112b9565b81146113a257600080fd5b50565b6113ae816112cb565b81146113b957600080fd5b50565b6113c5816112dd565b81146113d057600080fd5b50565b6113dc81611309565b81146113e757600080fd5b5056fea2646970667358221220564a3853c4b7898ba9d9d328c174b7ba957ad495597b98e649754f7a3ffd474564736f6c63430008010033",
  "immutableReferences": {},
  "source": "//SPDX-License-Identifier: Unlicense\npragma solidity ^0.8.1;\n\ninterface IERC721 {\n    function transferFrom(address _from, address _to, uint256 _id) external;\n}\n\ncontract Escrow {\n    address public nftAddress;\n    address payable public seller;\n    address public inspector;\n    address public lender;\n\n    modifier onlyBuyer(uint256 _nftID) {\n        require(msg.sender == buyer[_nftID], \"Only buyer can call this method\");\n        _;\n    }\n\n    modifier onlySeller() {\n        require(msg.sender == seller, \"Only seller can call this method\");\n        _;\n    }\n\n    modifier onlyInspector() {\n        require(msg.sender == inspector, \"Only inspector can call this method\");\n        _;\n    }\n\n    mapping(uint256 => bool) public isListed;\n    mapping(uint256 => uint256) public purchasePrice;\n    mapping(uint256 => uint256) public escrowAmount;\n    mapping(uint256 => address) public buyer;\n    mapping(uint256 => bool) public inspectionPassed;\n    mapping(uint256 => mapping(address => bool)) public approval;\n\n    // constructor(address _nftAddress, address payable _seller, address _inspector, address _lender) {\n    //     nftAddress = _nftAddress;\n    //     seller = _seller;\n    //     inspector = _inspector;\n    //     lender = _lender;\n    // }\n\n    constructor(){}\n\n    function init (address _nftAddress, address payable _seller, address _inspector, address _lender) public returns(address) {\n        nftAddress = _nftAddress;\n        seller = _seller;\n        inspector = _inspector;\n        lender = _lender;\n        return nftAddress;\n    }\n\n    function list(uint256 _nftID, uint256 _purchasePrice, uint256 _escrowAmount) public payable returns(address){\n        IERC721(nftAddress).transferFrom(msg.sender, address(this), _nftID);\n\n        isListed[_nftID] = true;\n        purchasePrice[_nftID] = _purchasePrice;\n        escrowAmount[_nftID] = _escrowAmount;\n\n        return seller;\n    }\n\n    function setByuer(uint256 _nftID, address _buyer) public {\n        buyer[_nftID] = _buyer;\n    }\n\n    function depositEarnest(uint256 _nftID) public payable onlyBuyer(_nftID) {\n        require(msg.value >= escrowAmount[_nftID]);\n    }\n\n    function updateInspectionStatus(uint256 _nftID, bool _passed) public onlyInspector {\n        inspectionPassed[_nftID] = _passed;\n    }\n\n    function approveSale(uint256 _nftID) public {\n        approval[_nftID][msg.sender] = true;\n    }\n\n    function finalizeSale(uint256 _nftID) public {\n        require(inspectionPassed[_nftID]);\n        require(approval[_nftID][buyer[_nftID]]);\n        require(approval[_nftID][seller]);\n        require(approval[_nftID][lender]);\n        require(address(this).balance >= purchasePrice[_nftID]);\n\n        isListed[_nftID] = false;\n\n        (bool success, ) = payable(seller).call{value: address(this).balance}(\"\");\n        require(success);\n\n        IERC721(nftAddress).transferFrom(address(this), buyer[_nftID], _nftID);\n    }\n\n    function cancelSale(uint256 _nftID) public {\n        if (inspectionPassed[_nftID] == false) {\n            payable(buyer[_nftID]).transfer(address(this).balance);\n        } else {\n            payable(seller).transfer(address(this).balance);\n        }\n    }\n\n    receive() external payable {}\n\n    function getBalance() public view returns (uint256) {\n        return address(this).balance;\n    }\n}",
  "sourcePath": "/home/patil/benami-transaction-prohibition/backend/solidiy/contracts/Escrow.sol",
  "compiler": {
    "name": "solc",
    "version": "0.8.1+commit.df193b15.Emscripten.clang"
  },
  "schemaVersion": "3.4.16",
  "updatedAt": "2023-10-11T16:27:28.882Z",
  "networkType": "ethereum",
  "devdoc": {
    "kind": "dev",
    "methods": {},
    "version": 1
  },
  "userdoc": {
    "kind": "user",
    "methods": {},
    "version": 1
  }
}