{
  "contractName": "Escrow",
  "abi": [
    {
      "inputs": [],
      "stateMutability": "nonpayable",
      "type": "constructor"
    },
    {
      "inputs": [
        {
          "internalType": "uint256",
          "name": "",
          "type": "uint256"
        },
        {
          "internalType": "address",
          "name": "",
          "type": "address"
        }
      ],
      "name": "approval",
      "outputs": [
        {
          "internalType": "bool",
          "name": "",
          "type": "bool"
        }
      ],
      "stateMutability": "view",
      "type": "function",
      "constant": true
    },
    {
      "inputs": [
        {
          "internalType": "uint256",
          "name": "",
          "type": "uint256"
        }
      ],
      "name": "buyer",
      "outputs": [
        {
          "internalType": "address",
          "name": "",
          "type": "address"
        }
      ],
      "stateMutability": "view",
      "type": "function",
      "constant": true
    },
    {
      "inputs": [
        {
          "internalType": "uint256",
          "name": "",
          "type": "uint256"
        }
      ],
      "name": "escrowAmount",
      "outputs": [
        {
          "internalType": "uint256",
          "name": "",
          "type": "uint256"
        }
      ],
      "stateMutability": "view",
      "type": "function",
      "constant": true
    },
    {
      "inputs": [
        {
          "internalType": "uint256",
          "name": "",
          "type": "uint256"
        }
      ],
      "name": "inspectionPassed",
      "outputs": [
        {
          "internalType": "bool",
          "name": "",
          "type": "bool"
        }
      ],
      "stateMutability": "view",
      "type": "function",
      "constant": true
    },
    {
      "inputs": [],
      "name": "inspector",
      "outputs": [
        {
          "internalType": "address",
          "name": "",
          "type": "address"
        }
      ],
      "stateMutability": "view",
      "type": "function",
      "constant": true
    },
    {
      "inputs": [
        {
          "internalType": "uint256",
          "name": "",
          "type": "uint256"
        }
      ],
      "name": "isListed",
      "outputs": [
        {
          "internalType": "bool",
          "name": "",
          "type": "bool"
        }
      ],
      "stateMutability": "view",
      "type": "function",
      "constant": true
    },
    {
      "inputs": [],
      "name": "lender",
      "outputs": [
        {
          "internalType": "address",
          "name": "",
          "type": "address"
        }
      ],
      "stateMutability": "view",
      "type": "function",
      "constant": true
    },
    {
      "inputs": [],
      "name": "nftAddress",
      "outputs": [
        {
          "internalType": "address",
          "name": "",
          "type": "address"
        }
      ],
      "stateMutability": "view",
      "type": "function",
      "constant": true
    },
    {
      "inputs": [
        {
          "internalType": "uint256",
          "name": "",
          "type": "uint256"
        }
      ],
      "name": "purchasePrice",
      "outputs": [
        {
          "internalType": "uint256",
          "name": "",
          "type": "uint256"
        }
      ],
      "stateMutability": "view",
      "type": "function",
      "constant": true
    },
    {
      "inputs": [],
      "name": "seller",
      "outputs": [
        {
          "internalType": "address payable",
          "name": "",
          "type": "address"
        }
      ],
      "stateMutability": "view",
      "type": "function",
      "constant": true
    },
    {
      "stateMutability": "payable",
      "type": "receive",
      "payable": true
    },
    {
      "inputs": [
        {
          "internalType": "address",
          "name": "_nftAddress",
          "type": "address"
        },
        {
          "internalType": "address payable",
          "name": "_seller",
          "type": "address"
        },
        {
          "internalType": "address",
          "name": "_inspector",
          "type": "address"
        }
      ],
      "name": "init",
      "outputs": [
        {
          "internalType": "address",
          "name": "",
          "type": "address"
        }
      ],
      "stateMutability": "nonpayable",
      "type": "function"
    },
    {
      "inputs": [
        {
          "internalType": "address",
          "name": "_lender",
          "type": "address"
        }
      ],
      "name": "setLender",
      "outputs": [],
      "stateMutability": "nonpayable",
      "type": "function"
    },
    {
      "inputs": [
        {
          "internalType": "uint256",
          "name": "_nftID",
          "type": "uint256"
        },
        {
          "internalType": "uint256",
          "name": "_purchasePrice",
          "type": "uint256"
        },
        {
          "internalType": "uint256",
          "name": "_escrowAmount",
          "type": "uint256"
        }
      ],
      "name": "list",
      "outputs": [
        {
          "internalType": "address",
          "name": "",
          "type": "address"
        }
      ],
      "stateMutability": "payable",
      "type": "function",
      "payable": true
    },
    {
      "inputs": [
        {
          "internalType": "uint256",
          "name": "_nftID",
          "type": "uint256"
        },
        {
          "internalType": "address",
          "name": "_buyer",
          "type": "address"
        }
      ],
      "name": "setByuer",
      "outputs": [],
      "stateMutability": "nonpayable",
      "type": "function"
    },
    {
      "inputs": [
        {
          "internalType": "uint256",
          "name": "_nftID",
          "type": "uint256"
        }
      ],
      "name": "depositEarnest",
      "outputs": [],
      "stateMutability": "payable",
      "type": "function",
      "payable": true
    },
    {
      "inputs": [
        {
          "internalType": "uint256",
          "name": "_nftID",
          "type": "uint256"
        },
        {
          "internalType": "bool",
          "name": "_passed",
          "type": "bool"
        }
      ],
      "name": "updateInspectionStatus",
      "outputs": [],
      "stateMutability": "nonpayable",
      "type": "function"
    },
    {
      "inputs": [
        {
          "internalType": "uint256",
          "name": "_nftID",
          "type": "uint256"
        }
      ],
      "name": "approveSale",
      "outputs": [],
      "stateMutability": "nonpayable",
      "type": "function"
    },
    {
      "inputs": [
        {
          "internalType": "uint256",
          "name": "_nftID",
          "type": "uint256"
        }
      ],
      "name": "finalizeSale",
      "outputs": [],
      "stateMutability": "nonpayable",
      "type": "function"
    },
    {
      "inputs": [
        {
          "internalType": "uint256",
          "name": "_nftID",
          "type": "uint256"
        }
      ],
      "name": "cancelSale",
      "outputs": [],
      "stateMutability": "nonpayable",
      "type": "function"
    },
    {
      "inputs": [],
      "name": "getBalance",
      "outputs": [
        {
          "internalType": "uint256",
          "name": "",
          "type": "uint256"
        }
      ],
      "stateMutability": "view",
      "type": "function",
      "constant": true
    }
  ],
  "bytecode": "0x608060405234801561001057600080fd5b50611795806100206000396000f3fe6080604052600436106101235760003560e01c806377fbc4ae116100a0578063bcead63e11610064578063bcead63e1461041b578063bd94b00514610446578063e740f7701461046f578063ed2cee9e1461048b578063fcce4883146104b65761012a565b806377fbc4ae146103265780639d0e5fd614610363578063a3fab7c31461038c578063aa929380146103b5578063b848de35146103de5761012a565b806346e368d4116100e757806346e368d41461021b5780634dd4acaf146102445780635bf8633a146102815780635d19e56c146102ac5780635eed5fff146102e95761012a565b806308551a531461012f57806312065fe01461015a57806314a72feb14610185578063184b9559146101ae57806319aeb490146101eb5761012a565b3661012a57005b600080fd5b34801561013b57600080fd5b506101446104f3565b60405161015191906113dd565b60405180910390f35b34801561016657600080fd5b5061016f610519565b60405161017c919061152a565b60405180910390f35b34801561019157600080fd5b506101ac60048036038101906101a79190611169565b610521565b005b3480156101ba57600080fd5b506101d560048036038101906101d0919061111a565b61058d565b6040516101e291906113c2565b60405180910390f35b6102056004803603810190610200919061120a565b61067b565b60405161021291906113c2565b60405180910390f35b34801561022757600080fd5b50610242600480360381019061023d91906110f1565b610795565b005b34801561025057600080fd5b5061026b60048036038101906102669190611169565b6107d9565b60405161027891906113c2565b60405180910390f35b34801561028d57600080fd5b5061029661080c565b6040516102a391906113c2565b60405180910390f35b3480156102b857600080fd5b506102d360048036038101906102ce9190611169565b610830565b6040516102e0919061152a565b60405180910390f35b3480156102f557600080fd5b50610310600480360381019061030b9190611169565b610848565b60405161031d919061142f565b60405180910390f35b34801561033257600080fd5b5061034d60048036038101906103489190611169565b610868565b60405161035a919061152a565b60405180910390f35b34801561036f57600080fd5b5061038a600480360381019061038591906111ce565b610880565b005b34801561039857600080fd5b506103b360048036038101906103ae9190611192565b61093f565b005b3480156103c157600080fd5b506103dc60048036038101906103d79190611169565b610995565b005b3480156103ea57600080fd5b5061040560048036038101906104009190611192565b610e23565b604051610412919061142f565b60405180910390f35b34801561042757600080fd5b50610430610e52565b60405161043d91906113c2565b60405180910390f35b34801561045257600080fd5b5061046d60048036038101906104689190611169565b610e78565b005b61048960048036038101906104849190611169565b610f91565b005b34801561049757600080fd5b506104a0611057565b6040516104ad91906113c2565b60405180910390f35b3480156104c257600080fd5b506104dd60048036038101906104d89190611169565b61107d565b6040516104ea919061142f565b60405180910390f35b600160009054906101000a900473ffffffffffffffffffffffffffffffffffffffff1681565b600047905090565b60016009600083815260200190815260200160002060003373ffffffffffffffffffffffffffffffffffffffff1673ffffffffffffffffffffffffffffffffffffffff16815260200190815260200160002060006101000a81548160ff02191690831515021790555050565b6000836000806101000a81548173ffffffffffffffffffffffffffffffffffffffff021916908373ffffffffffffffffffffffffffffffffffffffff16021790555082600160006101000a81548173ffffffffffffffffffffffffffffffffffffffff021916908373ffffffffffffffffffffffffffffffffffffffff16021790555081600260006101000a81548173ffffffffffffffffffffffffffffffffffffffff021916908373ffffffffffffffffffffffffffffffffffffffff16021790555060008054906101000a900473ffffffffffffffffffffffffffffffffffffffff1690509392505050565b60008060009054906101000a900473ffffffffffffffffffffffffffffffffffffffff1673ffffffffffffffffffffffffffffffffffffffff166323b872dd3330876040518463ffffffff1660e01b81526004016106db939291906113f8565b600060405180830381600087803b1580156106f557600080fd5b505af1158015610709573d6000803e3d6000fd5b5050505060016004600086815260200190815260200160002060006101000a81548160ff021916908315150217905550826005600086815260200190815260200160002081905550816006600086815260200190815260200160002081905550600160009054906101000a900473ffffffffffffffffffffffffffffffffffffffff1690509392505050565b80600360006101000a81548173ffffffffffffffffffffffffffffffffffffffff021916908373ffffffffffffffffffffffffffffffffffffffff16021790555050565b60076020528060005260406000206000915054906101000a900473ffffffffffffffffffffffffffffffffffffffff1681565b60008054906101000a900473ffffffffffffffffffffffffffffffffffffffff1681565b60066020528060005260406000206000915090505481565b60086020528060005260406000206000915054906101000a900460ff1681565b60056020528060005260406000206000915090505481565b600260009054906101000a900473ffffffffffffffffffffffffffffffffffffffff1673ffffffffffffffffffffffffffffffffffffffff163373ffffffffffffffffffffffffffffffffffffffff1614610910576040517f08c379a0000000000000000000000000000000000000000000000000000000008152600401610907906114ea565b60405180910390fd5b806008600084815260200190815260200160002060006101000a81548160ff0219169083151502179055505050565b806007600084815260200190815260200160002060006101000a81548173ffffffffffffffffffffffffffffffffffffffff021916908373ffffffffffffffffffffffffffffffffffffffff1602179055505050565b6008600082815260200190815260200160002060009054906101000a900460ff166109f5576040517f08c379a00000000000000000000000000000000000000000000000000000000081526004016109ec906114ca565b60405180910390fd5b6009600082815260200190815260200160002060006007600084815260200190815260200160002060009054906101000a900473ffffffffffffffffffffffffffffffffffffffff1673ffffffffffffffffffffffffffffffffffffffff1673ffffffffffffffffffffffffffffffffffffffff16815260200190815260200160002060009054906101000a900460ff16610ac5576040517f08c379a0000000000000000000000000000000000000000000000000000000008152600401610abc906114aa565b60405180910390fd5b600960008281526020019081526020016000206000600160009054906101000a900473ffffffffffffffffffffffffffffffffffffffff1673ffffffffffffffffffffffffffffffffffffffff1673ffffffffffffffffffffffffffffffffffffffff16815260200190815260200160002060009054906101000a900460ff16610b84576040517f08c379a0000000000000000000000000000000000000000000000000000000008152600401610b7b9061150a565b60405180910390fd5b600960008281526020019081526020016000206000600360009054906101000a900473ffffffffffffffffffffffffffffffffffffffff1673ffffffffffffffffffffffffffffffffffffffff1673ffffffffffffffffffffffffffffffffffffffff16815260200190815260200160002060009054906101000a900460ff16610c43576040517f08c379a0000000000000000000000000000000000000000000000000000000008152600401610c3a9061148a565b60405180910390fd5b6005600082815260200190815260200160002054471015610c99576040517f08c379a0000000000000000000000000000000000000000000000000000000008152600401610c909061144a565b60405180910390fd5b60006004600083815260200190815260200160002060006101000a81548160ff0219169083151502179055506000600160009054906101000a900473ffffffffffffffffffffffffffffffffffffffff1673ffffffffffffffffffffffffffffffffffffffff1647604051610d0d906113ad565b60006040518083038185875af1925050503d8060008114610d4a576040519150601f19603f3d011682016040523d82523d6000602084013e610d4f565b606091505b5050905080610d5d57600080fd5b60008054906101000a900473ffffffffffffffffffffffffffffffffffffffff1673ffffffffffffffffffffffffffffffffffffffff166323b872dd306007600086815260200190815260200160002060009054906101000a900473ffffffffffffffffffffffffffffffffffffffff16856040518463ffffffff1660e01b8152600401610ded939291906113f8565b600060405180830381600087803b158015610e0757600080fd5b505af1158015610e1b573d6000803e3d6000fd5b505050505050565b60096020528160005260406000206020528060005260406000206000915091509054906101000a900460ff1681565b600360009054906101000a900473ffffffffffffffffffffffffffffffffffffffff1681565b600015156008600083815260200190815260200160002060009054906101000a900460ff1615151415610f24576007600082815260200190815260200160002060009054906101000a900473ffffffffffffffffffffffffffffffffffffffff1673ffffffffffffffffffffffffffffffffffffffff166108fc479081150290604051600060405180830381858888f19350505050158015610f1e573d6000803e3d6000fd5b50610f8e565b600160009054906101000a900473ffffffffffffffffffffffffffffffffffffffff1673ffffffffffffffffffffffffffffffffffffffff166108fc479081150290604051600060405180830381858888f19350505050158015610f8c573d6000803e3d6000fd5b505b50565b806007600082815260200190815260200160002060009054906101000a900473ffffffffffffffffffffffffffffffffffffffff1673ffffffffffffffffffffffffffffffffffffffff163373ffffffffffffffffffffffffffffffffffffffff1614611033576040517f08c379a000000000000000000000000000000000000000000000000000000000815260040161102a9061146a565b60405180910390fd5b600660008381526020019081526020016000205434101561105357600080fd5b5050565b600260009054906101000a900473ffffffffffffffffffffffffffffffffffffffff1681565b60046020528060005260406000206000915054906101000a900460ff1681565b6000813590506110ac81611703565b92915050565b6000813590506110c18161171a565b92915050565b6000813590506110d681611731565b92915050565b6000813590506110eb81611748565b92915050565b60006020828403121561110357600080fd5b60006111118482850161109d565b91505092915050565b60008060006060848603121561112f57600080fd5b600061113d8682870161109d565b935050602061114e868287016110b2565b925050604061115f8682870161109d565b9150509250925092565b60006020828403121561117b57600080fd5b6000611189848285016110dc565b91505092915050565b600080604083850312156111a557600080fd5b60006111b3858286016110dc565b92505060206111c48582860161109d565b9150509250929050565b600080604083850312156111e157600080fd5b60006111ef858286016110dc565b9250506020611200858286016110c7565b9150509250929050565b60008060006060848603121561121f57600080fd5b600061122d868287016110dc565b935050602061123e868287016110dc565b925050604061124f868287016110dc565b9150509250925092565b61126281611573565b82525050565b61127181611561565b82525050565b61128081611585565b82525050565b6000611293601183611550565b915061129e826115bb565b602082019050919050565b60006112b6601f83611550565b91506112c1826115e4565b602082019050919050565b60006112d9601883611550565b91506112e48261160d565b602082019050919050565b60006112fc601183611550565b915061130782611636565b602082019050919050565b600061131f601183611550565b915061132a8261165f565b602082019050919050565b6000611342602383611550565b915061134d82611688565b604082019050919050565b6000611365600083611545565b9150611370826116d7565b600082019050919050565b6000611388601283611550565b9150611393826116da565b602082019050919050565b6113a7816115b1565b82525050565b60006113b882611358565b9150819050919050565b60006020820190506113d76000830184611268565b92915050565b60006020820190506113f26000830184611259565b92915050565b600060608201905061140d6000830186611268565b61141a6020830185611268565b611427604083018461139e565b949350505050565b60006020820190506114446000830184611277565b92915050565b6000602082019050818103600083015261146381611286565b9050919050565b60006020820190508181036000830152611483816112a9565b9050919050565b600060208201905081810360008301526114a3816112cc565b9050919050565b600060208201905081810360008301526114c3816112ef565b9050919050565b600060208201905081810360008301526114e381611312565b9050919050565b6000602082019050818103600083015261150381611335565b9050919050565b600060208201905081810360008301526115238161137b565b9050919050565b600060208201905061153f600083018461139e565b92915050565b600081905092915050565b600082825260208201905092915050565b600061156c82611591565b9050919050565b600061157e82611591565b9050919050565b60008115159050919050565b600073ffffffffffffffffffffffffffffffffffffffff82169050919050565b6000819050919050565b7f6e6f20656e6f7567682062616c616e6365000000000000000000000000000000600082015250565b7f4f6e6c792062757965722063616e2063616c6c2074686973206d6574686f6400600082015250565b7f6c656e64657220617070726f76616c2072657175697265640000000000000000600082015250565b7f617070726f76616c207265717569726564000000000000000000000000000000600082015250565b7f696e7365706374696f6e206661696c6564000000000000000000000000000000600082015250565b7f4f6e6c7920696e73706563746f722063616e2063616c6c2074686973206d657460008201527f686f640000000000000000000000000000000000000000000000000000000000602082015250565b50565b7f20617070726f76616c2072657175697265640000000000000000000000000000600082015250565b61170c81611561565b811461171757600080fd5b50565b61172381611573565b811461172e57600080fd5b50565b61173a81611585565b811461174557600080fd5b50565b611751816115b1565b811461175c57600080fd5b5056fea264697066735822122063d7835045b0e2df4a5bbd0fc57d306898d997e2b2ea81592f21d12b779b055864736f6c63430008010033",
  "immutableReferences": {},
  "source": "//SPDX-License-Identifier: Unlicense\npragma solidity ^0.8.1;\n\ninterface IERC721 {\n    function transferFrom(address _from, address _to, uint256 _id) external;\n}\n\ncontract Escrow {\n    address public nftAddress;\n    address payable public seller;\n    address public inspector;\n    address public lender;\n\n    modifier onlyBuyer(uint256 _nftID) {\n        require(msg.sender == buyer[_nftID], \"Only buyer can call this method\");\n        _;\n    }\n\n    modifier onlySeller() {\n        require(msg.sender == seller, \"Only seller can call this method\");\n        _;\n    }\n\n    modifier onlyInspector() {\n        require(msg.sender == inspector, \"Only inspector can call this method\");\n        _;\n    }\n\n    mapping(uint256 => bool) public isListed;\n    mapping(uint256 => uint256) public purchasePrice;\n    mapping(uint256 => uint256) public escrowAmount;\n    mapping(uint256 => address) public buyer;\n    mapping(uint256 => bool) public inspectionPassed;\n    mapping(uint256 => mapping(address => bool)) public approval;\n\n    // constructor(address _nftAddress, address payable _seller, address _inspector, address _lender) {\n    //     nftAddress = _nftAddress;\n    //     seller = _seller;\n    //     inspector = _inspector;\n    //     lender = _lender;\n    // }\n\n    constructor(){}\n\n    function init (address _nftAddress, address payable _seller, address _inspector) public returns(address) {\n        nftAddress = _nftAddress;\n        seller = _seller;\n        inspector = _inspector;\n        return nftAddress;\n    }\n\n    function setLender(address _lender) public {\n        lender = _lender;\n    }\n\n    function list(uint256 _nftID, uint256 _purchasePrice, uint256 _escrowAmount) public payable returns(address){\n        IERC721(nftAddress).transferFrom(msg.sender, address(this), _nftID);\n\n        isListed[_nftID] = true;\n        purchasePrice[_nftID] = _purchasePrice;\n        escrowAmount[_nftID] = _escrowAmount;\n\n        return seller;\n    }\n\n    function setByuer(uint256 _nftID, address _buyer) public {\n        buyer[_nftID] = _buyer;\n    }\n\n    function depositEarnest(uint256 _nftID) public payable onlyBuyer(_nftID) {\n        require(msg.value >= escrowAmount[_nftID]);\n    }\n\n    function updateInspectionStatus(uint256 _nftID, bool _passed) public onlyInspector {\n        inspectionPassed[_nftID] = _passed;\n    }\n\n    function approveSale(uint256 _nftID) public {\n        approval[_nftID][msg.sender] = true;\n    }\n\n    function finalizeSale(uint256 _nftID) public {\n        require(inspectionPassed[_nftID], 'insepction failed');\n        require(approval[_nftID][buyer[_nftID]], 'approval required');\n        require(approval[_nftID][seller], ' approval required');\n        require(approval[_nftID][lender], 'lender approval required');\n        require(address(this).balance >= purchasePrice[_nftID], 'no enough balance');\n\n        isListed[_nftID] = false;\n\n        (bool success, ) = payable(seller).call{value: address(this).balance}(\"\");\n        require(success);\n\n        IERC721(nftAddress).transferFrom(address(this), buyer[_nftID], _nftID);\n    }\n\n    function cancelSale(uint256 _nftID) public {\n        if (inspectionPassed[_nftID] == false) {\n            payable(buyer[_nftID]).transfer(address(this).balance);\n        } else {\n            payable(seller).transfer(address(this).balance);\n        }\n    }\n\n    receive() external payable {}\n\n    function getBalance() public view returns (uint256) {\n        return address(this).balance;\n    }\n}",
  "sourcePath": "/home/patil/benami-transaction-prohibition/backend/solidiy/contracts/Escrow.sol",
  "compiler": {
    "name": "solc",
    "version": "0.8.1+commit.df193b15.Emscripten.clang"
  },
  "schemaVersion": "3.4.16",
  "updatedAt": "2023-10-13T17:13:09.957Z",
  "networkType": "ethereum",
  "devdoc": {
    "kind": "dev",
    "methods": {},
    "version": 1
  },
  "userdoc": {
    "kind": "user",
    "methods": {},
    "version": 1
  }
}