{
  "contractName": "RealEstate",
  "abi": [
    {
      "inputs": [],
      "stateMutability": "nonpayable",
      "type": "constructor"
    },
    {
      "anonymous": false,
      "inputs": [
        {
          "indexed": true,
          "internalType": "address",
          "name": "owner",
          "type": "address"
        },
        {
          "indexed": true,
          "internalType": "address",
          "name": "approved",
          "type": "address"
        },
        {
          "indexed": true,
          "internalType": "uint256",
          "name": "tokenId",
          "type": "uint256"
        }
      ],
      "name": "Approval",
      "type": "event"
    },
    {
      "anonymous": false,
      "inputs": [
        {
          "indexed": true,
          "internalType": "address",
          "name": "owner",
          "type": "address"
        },
        {
          "indexed": true,
          "internalType": "address",
          "name": "operator",
          "type": "address"
        },
        {
          "indexed": false,
          "internalType": "bool",
          "name": "approved",
          "type": "bool"
        }
      ],
      "name": "ApprovalForAll",
      "type": "event"
    },
    {
      "anonymous": false,
      "inputs": [
        {
          "indexed": false,
          "internalType": "uint256",
          "name": "_fromTokenId",
          "type": "uint256"
        },
        {
          "indexed": false,
          "internalType": "uint256",
          "name": "_toTokenId",
          "type": "uint256"
        }
      ],
      "name": "BatchMetadataUpdate",
      "type": "event"
    },
    {
      "anonymous": false,
      "inputs": [
        {
          "indexed": false,
          "internalType": "uint256",
          "name": "_tokenId",
          "type": "uint256"
        }
      ],
      "name": "MetadataUpdate",
      "type": "event"
    },
    {
      "anonymous": false,
      "inputs": [
        {
          "indexed": true,
          "internalType": "address",
          "name": "from",
          "type": "address"
        },
        {
          "indexed": true,
          "internalType": "address",
          "name": "to",
          "type": "address"
        },
        {
          "indexed": true,
          "internalType": "uint256",
          "name": "tokenId",
          "type": "uint256"
        }
      ],
      "name": "Transfer",
      "type": "event"
    },
    {
      "inputs": [
        {
          "internalType": "address",
          "name": "to",
          "type": "address"
        },
        {
          "internalType": "uint256",
          "name": "tokenId",
          "type": "uint256"
        }
      ],
      "name": "approve",
      "outputs": [],
      "stateMutability": "nonpayable",
      "type": "function"
    },
    {
      "inputs": [
        {
          "internalType": "address",
          "name": "owner",
          "type": "address"
        }
      ],
      "name": "balanceOf",
      "outputs": [
        {
          "internalType": "uint256",
          "name": "",
          "type": "uint256"
        }
      ],
      "stateMutability": "view",
      "type": "function",
      "constant": true
    },
    {
      "inputs": [
        {
          "internalType": "uint256",
          "name": "tokenId",
          "type": "uint256"
        }
      ],
      "name": "getApproved",
      "outputs": [
        {
          "internalType": "address",
          "name": "",
          "type": "address"
        }
      ],
      "stateMutability": "view",
      "type": "function",
      "constant": true
    },
    {
      "inputs": [
        {
          "internalType": "address",
          "name": "owner",
          "type": "address"
        },
        {
          "internalType": "address",
          "name": "operator",
          "type": "address"
        }
      ],
      "name": "isApprovedForAll",
      "outputs": [
        {
          "internalType": "bool",
          "name": "",
          "type": "bool"
        }
      ],
      "stateMutability": "view",
      "type": "function",
      "constant": true
    },
    {
      "inputs": [],
      "name": "name",
      "outputs": [
        {
          "internalType": "string",
          "name": "",
          "type": "string"
        }
      ],
      "stateMutability": "view",
      "type": "function",
      "constant": true
    },
    {
      "inputs": [
        {
          "internalType": "uint256",
          "name": "tokenId",
          "type": "uint256"
        }
      ],
      "name": "ownerOf",
      "outputs": [
        {
          "internalType": "address",
          "name": "",
          "type": "address"
        }
      ],
      "stateMutability": "view",
      "type": "function",
      "constant": true
    },
    {
      "inputs": [
        {
          "internalType": "address",
          "name": "from",
          "type": "address"
        },
        {
          "internalType": "address",
          "name": "to",
          "type": "address"
        },
        {
          "internalType": "uint256",
          "name": "tokenId",
          "type": "uint256"
        }
      ],
      "name": "safeTransferFrom",
      "outputs": [],
      "stateMutability": "nonpayable",
      "type": "function"
    },
    {
      "inputs": [
        {
          "internalType": "address",
          "name": "from",
          "type": "address"
        },
        {
          "internalType": "address",
          "name": "to",
          "type": "address"
        },
        {
          "internalType": "uint256",
          "name": "tokenId",
          "type": "uint256"
        },
        {
          "internalType": "bytes",
          "name": "data",
          "type": "bytes"
        }
      ],
      "name": "safeTransferFrom",
      "outputs": [],
      "stateMutability": "nonpayable",
      "type": "function"
    },
    {
      "inputs": [
        {
          "internalType": "address",
          "name": "operator",
          "type": "address"
        },
        {
          "internalType": "bool",
          "name": "approved",
          "type": "bool"
        }
      ],
      "name": "setApprovalForAll",
      "outputs": [],
      "stateMutability": "nonpayable",
      "type": "function"
    },
    {
      "inputs": [
        {
          "internalType": "bytes4",
          "name": "interfaceId",
          "type": "bytes4"
        }
      ],
      "name": "supportsInterface",
      "outputs": [
        {
          "internalType": "bool",
          "name": "",
          "type": "bool"
        }
      ],
      "stateMutability": "view",
      "type": "function",
      "constant": true
    },
    {
      "inputs": [],
      "name": "symbol",
      "outputs": [
        {
          "internalType": "string",
          "name": "",
          "type": "string"
        }
      ],
      "stateMutability": "view",
      "type": "function",
      "constant": true
    },
    {
      "inputs": [
        {
          "internalType": "uint256",
          "name": "tokenId",
          "type": "uint256"
        }
      ],
      "name": "tokenURI",
      "outputs": [
        {
          "internalType": "string",
          "name": "",
          "type": "string"
        }
      ],
      "stateMutability": "view",
      "type": "function",
      "constant": true
    },
    {
      "inputs": [
        {
          "internalType": "address",
          "name": "from",
          "type": "address"
        },
        {
          "internalType": "address",
          "name": "to",
          "type": "address"
        },
        {
          "internalType": "uint256",
          "name": "tokenId",
          "type": "uint256"
        }
      ],
      "name": "transferFrom",
      "outputs": [],
      "stateMutability": "nonpayable",
      "type": "function"
    },
    {
      "inputs": [
        {
          "internalType": "address",
          "name": "to",
          "type": "address"
        },
        {
          "internalType": "string",
          "name": "tokenURI",
          "type": "string"
        }
      ],
      "name": "mint",
      "outputs": [
        {
          "internalType": "uint256",
          "name": "",
          "type": "uint256"
        }
      ],
      "stateMutability": "nonpayable",
      "type": "function"
    },
    {
      "inputs": [],
      "name": "totalSupply",
      "outputs": [
        {
          "internalType": "uint256",
          "name": "",
          "type": "uint256"
        }
      ],
      "stateMutability": "view",
      "type": "function",
      "constant": true
    }
  ],
  "bytecode": "0x60806040523480156200001157600080fd5b506040518060400160405280600b81526020017f5265616c204573746174650000000000000000000000000000000000000000008152506040518060400160405280600481526020017f5245414c00000000000000000000000000000000000000000000000000000000815250816000908051906020019062000096929190620000b8565b508060019080519060200190620000af929190620000b8565b505050620001cd565b828054620000c69062000168565b90600052602060002090601f016020900481019282620000ea576000855562000136565b82601f106200010557805160ff191683800117855562000136565b8280016001018555821562000136579182015b828111156200013557825182559160200191906001019062000118565b5b50905062000145919062000149565b5090565b5b80821115620001645760008160009055506001016200014a565b5090565b600060028204905060018216806200018157607f821691505b602082108114156200019857620001976200019e565b5b50919050565b7f4e487b7100000000000000000000000000000000000000000000000000000000600052602260045260246000fd5b612a1e80620001dd6000396000f3fe608060405234801561001057600080fd5b50600436106100f55760003560e01c80636352211e11610097578063b88d4fde11610066578063b88d4fde14610284578063c87b56dd146102a0578063d0def521146102d0578063e985e9c514610300576100f5565b80636352211e146101ea57806370a082311461021a57806395d89b411461024a578063a22cb46514610268576100f5565b8063095ea7b3116100d3578063095ea7b31461017857806318160ddd1461019457806323b872dd146101b257806342842e0e146101ce576100f5565b806301ffc9a7146100fa57806306fdde031461012a578063081812fc14610148575b600080fd5b610114600480360381019061010f9190611ecc565b610330565b6040516101219190612246565b60405180910390f35b610132610391565b60405161013f9190612261565b60405180910390f35b610162600480360381019061015d9190611f1e565b610423565b60405161016f91906121df565b60405180910390f35b610192600480360381019061018d9190611e90565b610469565b005b61019c610581565b6040516101a99190612403565b60405180910390f35b6101cc60048036038101906101c79190611d36565b610592565b005b6101e860048036038101906101e39190611d36565b6105f2565b005b61020460048036038101906101ff9190611f1e565b610612565b60405161021191906121df565b60405180910390f35b610234600480360381019061022f9190611cd1565b610699565b6040516102419190612403565b60405180910390f35b610252610751565b60405161025f9190612261565b60405180910390f35b610282600480360381019061027d9190611e00565b6107e3565b005b61029e60048036038101906102999190611d85565b6107f9565b005b6102ba60048036038101906102b59190611f1e565b61085b565b6040516102c79190612261565b60405180910390f35b6102ea60048036038101906102e59190611e3c565b61096e565b6040516102f79190612403565b60405180910390f35b61031a60048036038101906103159190611cfa565b6109a6565b6040516103279190612246565b60405180910390f35b6000634906490660e01b7bffffffffffffffffffffffffffffffffffffffffffffffffffffffff1916827bffffffffffffffffffffffffffffffffffffffffffffffffffffffff1916148061038a575061038982610a3a565b5b9050919050565b6060600080546103a09061259e565b80601f01602080910402602001604051908101604052809291908181526020018280546103cc9061259e565b80156104195780601f106103ee57610100808354040283529160200191610419565b820191906000526020600020905b8154815290600101906020018083116103fc57829003601f168201915b5050505050905090565b600061042e82610b1c565b6004600083815260200190815260200160002060009054906101000a900473ffffffffffffffffffffffffffffffffffffffff169050919050565b600061047482610612565b90508073ffffffffffffffffffffffffffffffffffffffff168373ffffffffffffffffffffffffffffffffffffffff1614156104e5576040517f08c379a00000000000000000000000000000000000000000000000000000000081526004016104dc906123c3565b60405180910390fd5b8073ffffffffffffffffffffffffffffffffffffffff16610504610b67565b73ffffffffffffffffffffffffffffffffffffffff16148061053357506105328161052d610b67565b6109a6565b5b610572576040517f08c379a0000000000000000000000000000000000000000000000000000000008152600401610569906123e3565b60405180910390fd5b61057c8383610b6f565b505050565b600061058d6007610c28565b905090565b6105a361059d610b67565b82610c36565b6105e2576040517f08c379a00000000000000000000000000000000000000000000000000000000081526004016105d990612283565b60405180910390fd5b6105ed838383610ccb565b505050565b61060d838383604051806020016040528060008152506107f9565b505050565b60008061061e83610fc5565b9050600073ffffffffffffffffffffffffffffffffffffffff168173ffffffffffffffffffffffffffffffffffffffff161415610690576040517f08c379a0000000000000000000000000000000000000000000000000000000008152600401610687906123a3565b60405180910390fd5b80915050919050565b60008073ffffffffffffffffffffffffffffffffffffffff168273ffffffffffffffffffffffffffffffffffffffff16141561070a576040517f08c379a000000000000000000000000000000000000000000000000000000000815260040161070190612343565b60405180910390fd5b600360008373ffffffffffffffffffffffffffffffffffffffff1673ffffffffffffffffffffffffffffffffffffffff168152602001908152602001600020549050919050565b6060600180546107609061259e565b80601f016020809104026020016040519081016040528092919081815260200182805461078c9061259e565b80156107d95780601f106107ae576101008083540402835291602001916107d9565b820191906000526020600020905b8154815290600101906020018083116107bc57829003601f168201915b5050505050905090565b6107f56107ee610b67565b8383611002565b5050565b61080a610804610b67565b83610c36565b610849576040517f08c379a000000000000000000000000000000000000000000000000000000000815260040161084090612283565b60405180910390fd5b6108558484848461116f565b50505050565b606061086682610b1c565b60006006600084815260200190815260200160002080546108869061259e565b80601f01602080910402602001604051908101604052809291908181526020018280546108b29061259e565b80156108ff5780601f106108d4576101008083540402835291602001916108ff565b820191906000526020600020905b8154815290600101906020018083116108e257829003601f168201915b5050505050905060006109106111cb565b9050600081511415610926578192505050610969565b60008251111561095b5780826040516020016109439291906121bb565b60405160208183030381529060405292505050610969565b610964846111e2565b925050505b919050565b600061097a600761124a565b60006109866007610c28565b90506109928482611260565b61099c818461147e565b8091505092915050565b6000600560008473ffffffffffffffffffffffffffffffffffffffff1673ffffffffffffffffffffffffffffffffffffffff16815260200190815260200160002060008373ffffffffffffffffffffffffffffffffffffffff1673ffffffffffffffffffffffffffffffffffffffff16815260200190815260200160002060009054906101000a900460ff16905092915050565b60007f80ac58cd000000000000000000000000000000000000000000000000000000007bffffffffffffffffffffffffffffffffffffffffffffffffffffffff1916827bffffffffffffffffffffffffffffffffffffffffffffffffffffffff19161480610b0557507f5b5e139f000000000000000000000000000000000000000000000000000000007bffffffffffffffffffffffffffffffffffffffffffffffffffffffff1916827bffffffffffffffffffffffffffffffffffffffffffffffffffffffff1916145b80610b155750610b1482611529565b5b9050919050565b610b2581611593565b610b64576040517f08c379a0000000000000000000000000000000000000000000000000000000008152600401610b5b906123a3565b60405180910390fd5b50565b600033905090565b816004600083815260200190815260200160002060006101000a81548173ffffffffffffffffffffffffffffffffffffffff021916908373ffffffffffffffffffffffffffffffffffffffff160217905550808273ffffffffffffffffffffffffffffffffffffffff16610be283610612565b73ffffffffffffffffffffffffffffffffffffffff167f8c5be1e5ebec7d5bd14f71427d1e84f3dd0314c0f7b2291e5b200ac8c7c3b92560405160405180910390a45050565b600081600001549050919050565b600080610c4283610612565b90508073ffffffffffffffffffffffffffffffffffffffff168473ffffffffffffffffffffffffffffffffffffffff161480610c845750610c8381856109a6565b5b80610cc257508373ffffffffffffffffffffffffffffffffffffffff16610caa84610423565b73ffffffffffffffffffffffffffffffffffffffff16145b91505092915050565b8273ffffffffffffffffffffffffffffffffffffffff16610ceb82610612565b73ffffffffffffffffffffffffffffffffffffffff1614610d41576040517f08c379a0000000000000000000000000000000000000000000000000000000008152600401610d38906122c3565b60405180910390fd5b600073ffffffffffffffffffffffffffffffffffffffff168273ffffffffffffffffffffffffffffffffffffffff161415610db1576040517f08c379a0000000000000000000000000000000000000000000000000000000008152600401610da890612303565b60405180910390fd5b610dbe83838360016115d4565b8273ffffffffffffffffffffffffffffffffffffffff16610dde82610612565b73ffffffffffffffffffffffffffffffffffffffff1614610e34576040517f08c379a0000000000000000000000000000000000000000000000000000000008152600401610e2b906122c3565b60405180910390fd5b6004600082815260200190815260200160002060006101000a81549073ffffffffffffffffffffffffffffffffffffffff02191690556001600360008573ffffffffffffffffffffffffffffffffffffffff1673ffffffffffffffffffffffffffffffffffffffff168152602001908152602001600020600082825403925050819055506001600360008473ffffffffffffffffffffffffffffffffffffffff1673ffffffffffffffffffffffffffffffffffffffff16815260200190815260200160002060008282540192505081905550816002600083815260200190815260200160002060006101000a81548173ffffffffffffffffffffffffffffffffffffffff021916908373ffffffffffffffffffffffffffffffffffffffff160217905550808273ffffffffffffffffffffffffffffffffffffffff168473ffffffffffffffffffffffffffffffffffffffff167fddf252ad1be2c89b69c2b068fc378daa952ba7f163c4a11628f55a4df523b3ef60405160405180910390a4610fc083838360016115da565b505050565b60006002600083815260200190815260200160002060009054906101000a900473ffffffffffffffffffffffffffffffffffffffff169050919050565b8173ffffffffffffffffffffffffffffffffffffffff168373ffffffffffffffffffffffffffffffffffffffff161415611071576040517f08c379a000000000000000000000000000000000000000000000000000000000815260040161106890612323565b60405180910390fd5b80600560008573ffffffffffffffffffffffffffffffffffffffff1673ffffffffffffffffffffffffffffffffffffffff16815260200190815260200160002060008473ffffffffffffffffffffffffffffffffffffffff1673ffffffffffffffffffffffffffffffffffffffff16815260200190815260200160002060006101000a81548160ff0219169083151502179055508173ffffffffffffffffffffffffffffffffffffffff168373ffffffffffffffffffffffffffffffffffffffff167f17307eab39ab6107e8899845ad3d59bd9653f200f220920489ca2b5937696c31836040516111629190612246565b60405180910390a3505050565b61117a848484610ccb565b611186848484846115e0565b6111c5576040517f08c379a00000000000000000000000000000000000000000000000000000000081526004016111bc906122a3565b60405180910390fd5b50505050565b606060405180602001604052806000815250905090565b60606111ed82610b1c565b60006111f76111cb565b905060008151116112175760405180602001604052806000815250611242565b8061122184611777565b6040516020016112329291906121bb565b6040516020818303038152906040525b915050919050565b6001816000016000828254019250508190555050565b600073ffffffffffffffffffffffffffffffffffffffff168273ffffffffffffffffffffffffffffffffffffffff1614156112d0576040517f08c379a00000000000000000000000000000000000000000000000000000000081526004016112c790612383565b60405180910390fd5b6112d981611593565b15611319576040517f08c379a0000000000000000000000000000000000000000000000000000000008152600401611310906122e3565b60405180910390fd5b6113276000838360016115d4565b61133081611593565b15611370576040517f08c379a0000000000000000000000000000000000000000000000000000000008152600401611367906122e3565b60405180910390fd5b6001600360008473ffffffffffffffffffffffffffffffffffffffff1673ffffffffffffffffffffffffffffffffffffffff16815260200190815260200160002060008282540192505081905550816002600083815260200190815260200160002060006101000a81548173ffffffffffffffffffffffffffffffffffffffff021916908373ffffffffffffffffffffffffffffffffffffffff160217905550808273ffffffffffffffffffffffffffffffffffffffff16600073ffffffffffffffffffffffffffffffffffffffff167fddf252ad1be2c89b69c2b068fc378daa952ba7f163c4a11628f55a4df523b3ef60405160405180910390a461147a6000838360016115da565b5050565b61148782611593565b6114c6576040517f08c379a00000000000000000000000000000000000000000000000000000000081526004016114bd90612363565b60405180910390fd5b806006600084815260200190815260200160002090805190602001906114ed929190611af5565b507ff8e1a15aba9398e019f0b49df1a4fde98ee17ae345cb5f6b5e2c27f5033e8ce78260405161151d9190612403565b60405180910390a15050565b60007f01ffc9a7000000000000000000000000000000000000000000000000000000007bffffffffffffffffffffffffffffffffffffffffffffffffffffffff1916827bffffffffffffffffffffffffffffffffffffffffffffffffffffffff1916149050919050565b60008073ffffffffffffffffffffffffffffffffffffffff166115b583610fc5565b73ffffffffffffffffffffffffffffffffffffffff1614159050919050565b50505050565b50505050565b60006116018473ffffffffffffffffffffffffffffffffffffffff1661189b565b1561176a578373ffffffffffffffffffffffffffffffffffffffff1663150b7a0261162a610b67565b8786866040518563ffffffff1660e01b815260040161164c94939291906121fa565b602060405180830381600087803b15801561166657600080fd5b505af192505050801561169757506040513d601f19601f820116820180604052508101906116949190611ef5565b60015b61171a573d80600081146116c7576040519150601f19603f3d011682016040523d82523d6000602084013e6116cc565b606091505b50600081511415611712576040517f08c379a0000000000000000000000000000000000000000000000000000000008152600401611709906122a3565b60405180910390fd5b805181602001fd5b63150b7a0260e01b7bffffffffffffffffffffffffffffffffffffffffffffffffffffffff1916817bffffffffffffffffffffffffffffffffffffffffffffffffffffffff19161491505061176f565b600190505b949350505050565b606060006001611786846118be565b01905060008167ffffffffffffffff8111156117cb577f4e487b7100000000000000000000000000000000000000000000000000000000600052604160045260246000fd5b6040519080825280601f01601f1916602001820160405280156117fd5781602001600182028036833780820191505090505b509050600082602001820190505b600115611890578080600190039150507f3031323334353637383961626364656600000000000000000000000000000000600a86061a8153600a858161187a577f4e487b7100000000000000000000000000000000000000000000000000000000600052601260045260246000fd5b049450600085141561188b57611890565b61180b565b819350505050919050565b6000808273ffffffffffffffffffffffffffffffffffffffff163b119050919050565b600080600090507a184f03e93ff9f4daa797ed6e38ed64bf6a1f0100000000000000008310611942577a184f03e93ff9f4daa797ed6e38ed64bf6a1f0100000000000000008381611938577f4e487b7100000000000000000000000000000000000000000000000000000000600052601260045260246000fd5b0492506040810190505b6d04ee2d6d415b85acef810000000083106119a5576d04ee2d6d415b85acef8100000000838161199b577f4e487b7100000000000000000000000000000000000000000000000000000000600052601260045260246000fd5b0492506020810190505b662386f26fc1000083106119fa57662386f26fc1000083816119f0577f4e487b7100000000000000000000000000000000000000000000000000000000600052601260045260246000fd5b0492506010810190505b6305f5e1008310611a49576305f5e1008381611a3f577f4e487b7100000000000000000000000000000000000000000000000000000000600052601260045260246000fd5b0492506008810190505b6127108310611a94576127108381611a8a577f4e487b7100000000000000000000000000000000000000000000000000000000600052601260045260246000fd5b0492506004810190505b60648310611add5760648381611ad3577f4e487b7100000000000000000000000000000000000000000000000000000000600052601260045260246000fd5b0492506002810190505b600a8310611aec576001810190505b80915050919050565b828054611b019061259e565b90600052602060002090601f016020900481019282611b235760008555611b6a565b82601f10611b3c57805160ff1916838001178555611b6a565b82800160010185558215611b6a579182015b82811115611b69578251825591602001919060010190611b4e565b5b509050611b779190611b7b565b5090565b5b80821115611b94576000816000905550600101611b7c565b5090565b6000611bab611ba684612443565b61241e565b905082815260208101848484011115611bc357600080fd5b611bce84828561255c565b509392505050565b6000611be9611be484612474565b61241e565b905082815260208101848484011115611c0157600080fd5b611c0c84828561255c565b509392505050565b600081359050611c238161298c565b92915050565b600081359050611c38816129a3565b92915050565b600081359050611c4d816129ba565b92915050565b600081519050611c62816129ba565b92915050565b600082601f830112611c7957600080fd5b8135611c89848260208601611b98565b91505092915050565b600082601f830112611ca357600080fd5b8135611cb3848260208601611bd6565b91505092915050565b600081359050611ccb816129d1565b92915050565b600060208284031215611ce357600080fd5b6000611cf184828501611c14565b91505092915050565b60008060408385031215611d0d57600080fd5b6000611d1b85828601611c14565b9250506020611d2c85828601611c14565b9150509250929050565b600080600060608486031215611d4b57600080fd5b6000611d5986828701611c14565b9350506020611d6a86828701611c14565b9250506040611d7b86828701611cbc565b9150509250925092565b60008060008060808587031215611d9b57600080fd5b6000611da987828801611c14565b9450506020611dba87828801611c14565b9350506040611dcb87828801611cbc565b925050606085013567ffffffffffffffff811115611de857600080fd5b611df487828801611c68565b91505092959194509250565b60008060408385031215611e1357600080fd5b6000611e2185828601611c14565b9250506020611e3285828601611c29565b9150509250929050565b60008060408385031215611e4f57600080fd5b6000611e5d85828601611c14565b925050602083013567ffffffffffffffff811115611e7a57600080fd5b611e8685828601611c92565b9150509250929050565b60008060408385031215611ea357600080fd5b6000611eb185828601611c14565b9250506020611ec285828601611cbc565b9150509250929050565b600060208284031215611ede57600080fd5b6000611eec84828501611c3e565b91505092915050565b600060208284031215611f0757600080fd5b6000611f1584828501611c53565b91505092915050565b600060208284031215611f3057600080fd5b6000611f3e84828501611cbc565b91505092915050565b611f50816124e8565b82525050565b611f5f816124fa565b82525050565b6000611f70826124a5565b611f7a81856124bb565b9350611f8a81856020860161256b565b611f938161265f565b840191505092915050565b6000611fa9826124b0565b611fb381856124cc565b9350611fc381856020860161256b565b611fcc8161265f565b840191505092915050565b6000611fe2826124b0565b611fec81856124dd565b9350611ffc81856020860161256b565b80840191505092915050565b6000612015602d836124cc565b915061202082612670565b604082019050919050565b60006120386032836124cc565b9150612043826126bf565b604082019050919050565b600061205b6025836124cc565b91506120668261270e565b604082019050919050565b600061207e601c836124cc565b91506120898261275d565b602082019050919050565b60006120a16024836124cc565b91506120ac82612786565b604082019050919050565b60006120c46019836124cc565b91506120cf826127d5565b602082019050919050565b60006120e76029836124cc565b91506120f2826127fe565b604082019050919050565b600061210a602e836124cc565b91506121158261284d565b604082019050919050565b600061212d6020836124cc565b91506121388261289c565b602082019050919050565b60006121506018836124cc565b915061215b826128c5565b602082019050919050565b60006121736021836124cc565b915061217e826128ee565b604082019050919050565b6000612196603d836124cc565b91506121a18261293d565b604082019050919050565b6121b581612552565b82525050565b60006121c78285611fd7565b91506121d38284611fd7565b91508190509392505050565b60006020820190506121f46000830184611f47565b92915050565b600060808201905061220f6000830187611f47565b61221c6020830186611f47565b61222960408301856121ac565b818103606083015261223b8184611f65565b905095945050505050565b600060208201905061225b6000830184611f56565b92915050565b6000602082019050818103600083015261227b8184611f9e565b905092915050565b6000602082019050818103600083015261229c81612008565b9050919050565b600060208201905081810360008301526122bc8161202b565b9050919050565b600060208201905081810360008301526122dc8161204e565b9050919050565b600060208201905081810360008301526122fc81612071565b9050919050565b6000602082019050818103600083015261231c81612094565b9050919050565b6000602082019050818103600083015261233c816120b7565b9050919050565b6000602082019050818103600083015261235c816120da565b9050919050565b6000602082019050818103600083015261237c816120fd565b9050919050565b6000602082019050818103600083015261239c81612120565b9050919050565b600060208201905081810360008301526123bc81612143565b9050919050565b600060208201905081810360008301526123dc81612166565b9050919050565b600060208201905081810360008301526123fc81612189565b9050919050565b600060208201905061241860008301846121ac565b92915050565b6000612428612439565b905061243482826125d0565b919050565b6000604051905090565b600067ffffffffffffffff82111561245e5761245d612630565b5b6124678261265f565b9050602081019050919050565b600067ffffffffffffffff82111561248f5761248e612630565b5b6124988261265f565b9050602081019050919050565b600081519050919050565b600081519050919050565b600082825260208201905092915050565b600082825260208201905092915050565b600081905092915050565b60006124f382612532565b9050919050565b60008115159050919050565b60007fffffffff0000000000000000000000000000000000000000000000000000000082169050919050565b600073ffffffffffffffffffffffffffffffffffffffff82169050919050565b6000819050919050565b82818337600083830152505050565b60005b8381101561258957808201518184015260208101905061256e565b83811115612598576000848401525b50505050565b600060028204905060018216806125b657607f821691505b602082108114156125ca576125c9612601565b5b50919050565b6125d98261265f565b810181811067ffffffffffffffff821117156125f8576125f7612630565b5b80604052505050565b7f4e487b7100000000000000000000000000000000000000000000000000000000600052602260045260246000fd5b7f4e487b7100000000000000000000000000000000000000000000000000000000600052604160045260246000fd5b6000601f19601f8301169050919050565b7f4552433732313a2063616c6c6572206973206e6f7420746f6b656e206f776e6560008201527f72206f7220617070726f76656400000000000000000000000000000000000000602082015250565b7f4552433732313a207472616e7366657220746f206e6f6e20455243373231526560008201527f63656976657220696d706c656d656e7465720000000000000000000000000000602082015250565b7f4552433732313a207472616e736665722066726f6d20696e636f72726563742060008201527f6f776e6572000000000000000000000000000000000000000000000000000000602082015250565b7f4552433732313a20746f6b656e20616c7265616479206d696e74656400000000600082015250565b7f4552433732313a207472616e7366657220746f20746865207a65726f2061646460008201527f7265737300000000000000000000000000000000000000000000000000000000602082015250565b7f4552433732313a20617070726f766520746f2063616c6c657200000000000000600082015250565b7f4552433732313a2061646472657373207a65726f206973206e6f74206120766160008201527f6c6964206f776e65720000000000000000000000000000000000000000000000602082015250565b7f45524337323155524953746f726167653a2055524920736574206f66206e6f6e60008201527f6578697374656e7420746f6b656e000000000000000000000000000000000000602082015250565b7f4552433732313a206d696e7420746f20746865207a65726f2061646472657373600082015250565b7f4552433732313a20696e76616c696420746f6b656e2049440000000000000000600082015250565b7f4552433732313a20617070726f76616c20746f2063757272656e74206f776e6560008201527f7200000000000000000000000000000000000000000000000000000000000000602082015250565b7f4552433732313a20617070726f76652063616c6c6572206973206e6f7420746f60008201527f6b656e206f776e6572206f7220617070726f76656420666f7220616c6c000000602082015250565b612995816124e8565b81146129a057600080fd5b50565b6129ac816124fa565b81146129b757600080fd5b50565b6129c381612506565b81146129ce57600080fd5b50565b6129da81612552565b81146129e557600080fd5b5056fea2646970667358221220ad0c2fcfab78f073546614e494b4618f00b4a1a6c9b70254a50f3c0ee796651664736f6c63430008010033",
  "immutableReferences": {},
  "source": "//SPDX-License-Identifier: Unlicense\npragma solidity ^0.8.1;\n\n// import \"/home/patil/benami-transaction-prohibition/backend/node_modules/@openzeppelin/contracts/token/ERC721/ERC721.sol\";\nimport \"@openzeppelin/contracts/utils/Counters.sol\";\nimport \"@openzeppelin/contracts/token/ERC721/ERC721.sol\";\nimport \"@openzeppelin/contracts/token/ERC721/extensions/ERC721URIStorage.sol\";\n\ncontract RealEstate is ERC721URIStorage {\n    using Counters for Counters.Counter;\n    Counters.Counter private _tokenIds;\n\n    constructor() ERC721(\"Real Estate\", \"REAL\") {}\n\n    function mint(address to, string memory tokenURI) public returns(uint256) {\n        _tokenIds.increment();\n\n        uint256 newItemId =  _tokenIds.current();\n\n        _mint(to, newItemId);\n        _setTokenURI(newItemId, tokenURI);\n\n        return newItemId;\n    }\n\n     function totalSupply() public view returns (uint256) {\n        return _tokenIds.current();\n    }\n}",
  "sourcePath": "/home/patil/benami-transaction-prohibition/backend/solidiy/contracts/RealEstate.sol",
  "compiler": {
    "name": "solc",
    "version": "0.8.1+commit.df193b15.Emscripten.clang"
  },
  "schemaVersion": "3.4.14",
  "updatedAt": "2023-08-20T13:48:37.485Z",
  "networkType": "ethereum",
  "devdoc": {
    "kind": "dev",
    "methods": {
      "approve(address,uint256)": {
        "details": "See {IERC721-approve}."
      },
      "balanceOf(address)": {
        "details": "See {IERC721-balanceOf}."
      },
      "getApproved(uint256)": {
        "details": "See {IERC721-getApproved}."
      },
      "isApprovedForAll(address,address)": {
        "details": "See {IERC721-isApprovedForAll}."
      },
      "name()": {
        "details": "See {IERC721Metadata-name}."
      },
      "ownerOf(uint256)": {
        "details": "See {IERC721-ownerOf}."
      },
      "safeTransferFrom(address,address,uint256)": {
        "details": "See {IERC721-safeTransferFrom}."
      },
      "safeTransferFrom(address,address,uint256,bytes)": {
        "details": "See {IERC721-safeTransferFrom}."
      },
      "setApprovalForAll(address,bool)": {
        "details": "See {IERC721-setApprovalForAll}."
      },
      "supportsInterface(bytes4)": {
        "details": "See {IERC165-supportsInterface}"
      },
      "symbol()": {
        "details": "See {IERC721Metadata-symbol}."
      },
      "tokenURI(uint256)": {
        "details": "See {IERC721Metadata-tokenURI}."
      },
      "transferFrom(address,address,uint256)": {
        "details": "See {IERC721-transferFrom}."
      }
    },
    "version": 1
  },
  "userdoc": {
    "kind": "user",
    "methods": {},
    "version": 1
  }
}